{
  "_format": "hh-sol-artifact-1",
  "contractName": "BulletToken",
  "sourceName": "contracts/BulletToken.sol",
  "abi": [
    {
      "inputs": [],
      "stateMutability": "nonpayable",
      "type": "constructor"
    },
    {
      "inputs": [
        {
          "internalType": "address",
          "name": "spender",
          "type": "address"
        },
        {
          "internalType": "uint256",
          "name": "allowance",
          "type": "uint256"
        },
        {
          "internalType": "uint256",
          "name": "needed",
          "type": "uint256"
        }
      ],
      "name": "ERC20InsufficientAllowance",
      "type": "error"
    },
    {
      "inputs": [
        {
          "internalType": "address",
          "name": "sender",
          "type": "address"
        },
        {
          "internalType": "uint256",
          "name": "balance",
          "type": "uint256"
        },
        {
          "internalType": "uint256",
          "name": "needed",
          "type": "uint256"
        }
      ],
      "name": "ERC20InsufficientBalance",
      "type": "error"
    },
    {
      "inputs": [
        {
          "internalType": "address",
          "name": "approver",
          "type": "address"
        }
      ],
      "name": "ERC20InvalidApprover",
      "type": "error"
    },
    {
      "inputs": [
        {
          "internalType": "address",
          "name": "receiver",
          "type": "address"
        }
      ],
      "name": "ERC20InvalidReceiver",
      "type": "error"
    },
    {
      "inputs": [
        {
          "internalType": "address",
          "name": "sender",
          "type": "address"
        }
      ],
      "name": "ERC20InvalidSender",
      "type": "error"
    },
    {
      "inputs": [
        {
          "internalType": "address",
          "name": "spender",
          "type": "address"
        }
      ],
      "name": "ERC20InvalidSpender",
      "type": "error"
    },
    {
      "inputs": [
        {
          "internalType": "address",
          "name": "owner",
          "type": "address"
        }
      ],
      "name": "OwnableInvalidOwner",
      "type": "error"
    },
    {
      "inputs": [
        {
          "internalType": "address",
          "name": "account",
          "type": "address"
        }
      ],
      "name": "OwnableUnauthorizedAccount",
      "type": "error"
    },
    {
      "anonymous": false,
      "inputs": [
        {
          "indexed": true,
          "internalType": "address",
          "name": "owner",
          "type": "address"
        },
        {
          "indexed": true,
          "internalType": "address",
          "name": "spender",
          "type": "address"
        },
        {
          "indexed": false,
          "internalType": "uint256",
          "name": "value",
          "type": "uint256"
        }
      ],
      "name": "Approval",
      "type": "event"
    },
    {
      "anonymous": false,
      "inputs": [
        {
          "indexed": true,
          "internalType": "address",
          "name": "previousOwner",
          "type": "address"
        },
        {
          "indexed": true,
          "internalType": "address",
          "name": "newOwner",
          "type": "address"
        }
      ],
      "name": "OwnershipTransferred",
      "type": "event"
    },
    {
      "anonymous": false,
      "inputs": [
        {
          "indexed": true,
          "internalType": "address",
          "name": "from",
          "type": "address"
        },
        {
          "indexed": true,
          "internalType": "address",
          "name": "to",
          "type": "address"
        },
        {
          "indexed": false,
          "internalType": "uint256",
          "name": "value",
          "type": "uint256"
        }
      ],
      "name": "Transfer",
      "type": "event"
    },
    {
      "inputs": [
        {
          "internalType": "address",
          "name": "owner",
          "type": "address"
        },
        {
          "internalType": "address",
          "name": "spender",
          "type": "address"
        }
      ],
      "name": "allowance",
      "outputs": [
        {
          "internalType": "uint256",
          "name": "",
          "type": "uint256"
        }
      ],
      "stateMutability": "view",
      "type": "function"
    },
    {
      "inputs": [
        {
          "internalType": "address",
          "name": "spender",
          "type": "address"
        },
        {
          "internalType": "uint256",
          "name": "value",
          "type": "uint256"
        }
      ],
      "name": "approve",
      "outputs": [
        {
          "internalType": "bool",
          "name": "",
          "type": "bool"
        }
      ],
      "stateMutability": "nonpayable",
      "type": "function"
    },
    {
      "inputs": [
        {
          "internalType": "address",
          "name": "account",
          "type": "address"
        }
      ],
      "name": "balanceOf",
      "outputs": [
        {
          "internalType": "uint256",
          "name": "",
          "type": "uint256"
        }
      ],
      "stateMutability": "view",
      "type": "function"
    },
    {
      "inputs": [],
      "name": "buyTokens",
      "outputs": [],
      "stateMutability": "payable",
      "type": "function"
    },
    {
      "inputs": [],
      "name": "decimals",
      "outputs": [
        {
          "internalType": "uint8",
          "name": "",
          "type": "uint8"
        }
      ],
      "stateMutability": "view",
      "type": "function"
    },
    {
      "inputs": [],
      "name": "name",
      "outputs": [
        {
          "internalType": "string",
          "name": "",
          "type": "string"
        }
      ],
      "stateMutability": "view",
      "type": "function"
    },
    {
      "inputs": [],
      "name": "owner",
      "outputs": [
        {
          "internalType": "address",
          "name": "",
          "type": "address"
        }
      ],
      "stateMutability": "view",
      "type": "function"
    },
    {
      "inputs": [],
      "name": "rate",
      "outputs": [
        {
          "internalType": "uint256",
          "name": "",
          "type": "uint256"
        }
      ],
      "stateMutability": "view",
      "type": "function"
    },
    {
      "inputs": [],
      "name": "renounceOwnership",
      "outputs": [],
      "stateMutability": "nonpayable",
      "type": "function"
    },
    {
      "inputs": [],
      "name": "symbol",
      "outputs": [
        {
          "internalType": "string",
          "name": "",
          "type": "string"
        }
      ],
      "stateMutability": "view",
      "type": "function"
    },
    {
      "inputs": [],
      "name": "totalSupply",
      "outputs": [
        {
          "internalType": "uint256",
          "name": "",
          "type": "uint256"
        }
      ],
      "stateMutability": "view",
      "type": "function"
    },
    {
      "inputs": [
        {
          "internalType": "address",
          "name": "to",
          "type": "address"
        },
        {
          "internalType": "uint256",
          "name": "value",
          "type": "uint256"
        }
      ],
      "name": "transfer",
      "outputs": [
        {
          "internalType": "bool",
          "name": "",
          "type": "bool"
        }
      ],
      "stateMutability": "nonpayable",
      "type": "function"
    },
    {
      "inputs": [
        {
          "internalType": "address",
          "name": "from",
          "type": "address"
        },
        {
          "internalType": "address",
          "name": "to",
          "type": "address"
        },
        {
          "internalType": "uint256",
          "name": "value",
          "type": "uint256"
        }
      ],
      "name": "transferFrom",
      "outputs": [
        {
          "internalType": "bool",
          "name": "",
          "type": "bool"
        }
      ],
      "stateMutability": "nonpayable",
      "type": "function"
    },
    {
      "inputs": [
        {
          "internalType": "address",
          "name": "newOwner",
          "type": "address"
        }
      ],
      "name": "transferOwnership",
      "outputs": [],
      "stateMutability": "nonpayable",
      "type": "function"
    },
    {
      "inputs": [],
      "name": "withdraw",
      "outputs": [],
      "stateMutability": "nonpayable",
      "type": "function"
    }
  ],
  "bytecode": "0x60806040526103e86006553480156200001757600080fd5b50336040518060400160405280600c81526020017f42756c6c657420546f6b656e00000000000000000000000000000000000000008152506040518060400160405280600681526020017f42554c4c45540000000000000000000000000000000000000000000000000000815250816003908162000096919062000478565b508060049081620000a8919062000478565b505050600073ffffffffffffffffffffffffffffffffffffffff168173ffffffffffffffffffffffffffffffffffffffff1603620001205760006040517f1e4fbdf7000000000000000000000000000000000000000000000000000000008152600401620001179190620005a4565b60405180910390fd5b62000131816200013860201b60201c565b50620005c1565b6000600560009054906101000a900473ffffffffffffffffffffffffffffffffffffffff16905081600560006101000a81548173ffffffffffffffffffffffffffffffffffffffff021916908373ffffffffffffffffffffffffffffffffffffffff1602179055508173ffffffffffffffffffffffffffffffffffffffff168173ffffffffffffffffffffffffffffffffffffffff167f8be0079c531659141344cd1fd0a4f28419497f9722a3daafe3b4186f6b6457e060405160405180910390a35050565b600081519050919050565b7f4e487b7100000000000000000000000000000000000000000000000000000000600052604160045260246000fd5b7f4e487b7100000000000000000000000000000000000000000000000000000000600052602260045260246000fd5b600060028204905060018216806200028057607f821691505b60208210810362000296576200029562000238565b5b50919050565b60008190508160005260206000209050919050565b60006020601f8301049050919050565b600082821b905092915050565b600060088302620003007fffffffffffffffffffffffffffffffffffffffffffffffffffffffffffffffff82620002c1565b6200030c8683620002c1565b95508019841693508086168417925050509392505050565b6000819050919050565b6000819050919050565b600062000359620003536200034d8462000324565b6200032e565b62000324565b9050919050565b6000819050919050565b620003758362000338565b6200038d620003848262000360565b848454620002ce565b825550505050565b600090565b620003a462000395565b620003b18184846200036a565b505050565b5b81811015620003d957620003cd6000826200039a565b600181019050620003b7565b5050565b601f8211156200042857620003f2816200029c565b620003fd84620002b1565b810160208510156200040d578190505b620004256200041c85620002b1565b830182620003b6565b50505b505050565b600082821c905092915050565b60006200044d600019846008026200042d565b1980831691505092915050565b60006200046883836200043a565b9150826002028217905092915050565b6200048382620001fe565b67ffffffffffffffff8111156200049f576200049e62000209565b5b620004ab825462000267565b620004b8828285620003dd565b600060209050601f831160018114620004f05760008415620004db578287015190505b620004e785826200045a565b86555062000557565b601f19841662000500866200029c565b60005b828110156200052a5784890151825560018201915060208501945060208101905062000503565b868310156200054a578489015162000546601f8916826200043a565b8355505b6001600288020188555050505b505050505050565b600073ffffffffffffffffffffffffffffffffffffffff82169050919050565b60006200058c826200055f565b9050919050565b6200059e816200057f565b82525050565b6000602082019050620005bb600083018462000593565b92915050565b6113d880620005d16000396000f3fe6080604052600436106100e85760003560e01c806370a082311161008a578063a9059cbb11610059578063a9059cbb146102d4578063d0febe4c14610311578063dd62ed3e1461031b578063f2fde38b14610358576100e8565b806370a082311461022a578063715018a6146102675780638da5cb5b1461027e57806395d89b41146102a9576100e8565b806323b872dd116100c657806323b872dd146101805780632c4e722e146101bd578063313ce567146101e85780633ccfd60b14610213576100e8565b806306fdde03146100ed578063095ea7b31461011857806318160ddd14610155575b600080fd5b3480156100f957600080fd5b50610102610381565b60405161010f9190610f7e565b60405180910390f35b34801561012457600080fd5b5061013f600480360381019061013a9190611039565b610413565b60405161014c9190611094565b60405180910390f35b34801561016157600080fd5b5061016a610436565b60405161017791906110be565b60405180910390f35b34801561018c57600080fd5b506101a760048036038101906101a291906110d9565b610440565b6040516101b49190611094565b60405180910390f35b3480156101c957600080fd5b506101d261046f565b6040516101df91906110be565b60405180910390f35b3480156101f457600080fd5b506101fd610475565b60405161020a9190611148565b60405180910390f35b34801561021f57600080fd5b5061022861047e565b005b34801561023657600080fd5b50610251600480360381019061024c9190611163565b6104d6565b60405161025e91906110be565b60405180910390f35b34801561027357600080fd5b5061027c61051e565b005b34801561028a57600080fd5b50610293610532565b6040516102a0919061119f565b60405180910390f35b3480156102b557600080fd5b506102be61055c565b6040516102cb9190610f7e565b60405180910390f35b3480156102e057600080fd5b506102fb60048036038101906102f69190611039565b6105ee565b6040516103089190611094565b60405180910390f35b610319610611565b005b34801561032757600080fd5b50610342600480360381019061033d91906111ba565b610673565b60405161034f91906110be565b60405180910390f35b34801561036457600080fd5b5061037f600480360381019061037a9190611163565b6106fa565b005b60606003805461039090611229565b80601f01602080910402602001604051908101604052809291908181526020018280546103bc90611229565b80156104095780601f106103de57610100808354040283529160200191610409565b820191906000526020600020905b8154815290600101906020018083116103ec57829003601f168201915b5050505050905090565b60008061041e610780565b905061042b818585610788565b600191505092915050565b6000600254905090565b60008061044b610780565b905061045885828561079a565b61046385858561082f565b60019150509392505050565b60065481565b60006012905090565b610486610923565b61048e610532565b73ffffffffffffffffffffffffffffffffffffffff166108fc479081150290604051600060405180830381858888f193505050501580156104d3573d6000803e3d6000fd5b50565b60008060008373ffffffffffffffffffffffffffffffffffffffff1673ffffffffffffffffffffffffffffffffffffffff168152602001908152602001600020549050919050565b610526610923565b61053060006109aa565b565b6000600560009054906101000a900473ffffffffffffffffffffffffffffffffffffffff16905090565b60606004805461056b90611229565b80601f016020809104026020016040519081016040528092919081815260200182805461059790611229565b80156105e45780601f106105b9576101008083540402835291602001916105e4565b820191906000526020600020905b8154815290600101906020018083116105c757829003601f168201915b5050505050905090565b6000806105f9610780565b905061060681858561082f565b600191505092915050565b60003411610654576040517f08c379a000000000000000000000000000000000000000000000000000000000815260040161064b906112a6565b60405180910390fd5b60006006543461066491906112f5565b90506106703382610a70565b50565b6000600160008473ffffffffffffffffffffffffffffffffffffffff1673ffffffffffffffffffffffffffffffffffffffff16815260200190815260200160002060008373ffffffffffffffffffffffffffffffffffffffff1673ffffffffffffffffffffffffffffffffffffffff16815260200190815260200160002054905092915050565b610702610923565b600073ffffffffffffffffffffffffffffffffffffffff168173ffffffffffffffffffffffffffffffffffffffff16036107745760006040517f1e4fbdf700000000000000000000000000000000000000000000000000000000815260040161076b919061119f565b60405180910390fd5b61077d816109aa565b50565b600033905090565b6107958383836001610af2565b505050565b60006107a68484610673565b90507fffffffffffffffffffffffffffffffffffffffffffffffffffffffffffffffff8110156108295781811015610819578281836040517ffb8f41b200000000000000000000000000000000000000000000000000000000815260040161081093929190611337565b60405180910390fd5b61082884848484036000610af2565b5b50505050565b600073ffffffffffffffffffffffffffffffffffffffff168373ffffffffffffffffffffffffffffffffffffffff16036108a15760006040517f96c6fd1e000000000000000000000000000000000000000000000000000000008152600401610898919061119f565b60405180910390fd5b600073ffffffffffffffffffffffffffffffffffffffff168273ffffffffffffffffffffffffffffffffffffffff16036109135760006040517fec442f0500000000000000000000000000000000000000000000000000000000815260040161090a919061119f565b60405180910390fd5b61091e838383610cc9565b505050565b61092b610780565b73ffffffffffffffffffffffffffffffffffffffff16610949610532565b73ffffffffffffffffffffffffffffffffffffffff16146109a85761096c610780565b6040517f118cdaa700000000000000000000000000000000000000000000000000000000815260040161099f919061119f565b60405180910390fd5b565b6000600560009054906101000a900473ffffffffffffffffffffffffffffffffffffffff16905081600560006101000a81548173ffffffffffffffffffffffffffffffffffffffff021916908373ffffffffffffffffffffffffffffffffffffffff1602179055508173ffffffffffffffffffffffffffffffffffffffff168173ffffffffffffffffffffffffffffffffffffffff167f8be0079c531659141344cd1fd0a4f28419497f9722a3daafe3b4186f6b6457e060405160405180910390a35050565b600073ffffffffffffffffffffffffffffffffffffffff168273ffffffffffffffffffffffffffffffffffffffff1603610ae25760006040517fec442f05000000000000000000000000000000000000000000000000000000008152600401610ad9919061119f565b60405180910390fd5b610aee60008383610cc9565b5050565b600073ffffffffffffffffffffffffffffffffffffffff168473ffffffffffffffffffffffffffffffffffffffff1603610b645760006040517fe602df05000000000000000000000000000000000000000000000000000000008152600401610b5b919061119f565b60405180910390fd5b600073ffffffffffffffffffffffffffffffffffffffff168373ffffffffffffffffffffffffffffffffffffffff1603610bd65760006040517f94280d62000000000000000000000000000000000000000000000000000000008152600401610bcd919061119f565b60405180910390fd5b81600160008673ffffffffffffffffffffffffffffffffffffffff1673ffffffffffffffffffffffffffffffffffffffff16815260200190815260200160002060008573ffffffffffffffffffffffffffffffffffffffff1673ffffffffffffffffffffffffffffffffffffffff168152602001908152602001600020819055508015610cc3578273ffffffffffffffffffffffffffffffffffffffff168473ffffffffffffffffffffffffffffffffffffffff167f8c5be1e5ebec7d5bd14f71427d1e84f3dd0314c0f7b2291e5b200ac8c7c3b92584604051610cba91906110be565b60405180910390a35b50505050565b600073ffffffffffffffffffffffffffffffffffffffff168373ffffffffffffffffffffffffffffffffffffffff1603610d1b578060026000828254610d0f919061136e565b92505081905550610dee565b60008060008573ffffffffffffffffffffffffffffffffffffffff1673ffffffffffffffffffffffffffffffffffffffff16815260200190815260200160002054905081811015610da7578381836040517fe450d38c000000000000000000000000000000000000000000000000000000008152600401610d9e93929190611337565b60405180910390fd5b8181036000808673ffffffffffffffffffffffffffffffffffffffff1673ffffffffffffffffffffffffffffffffffffffff16815260200190815260200160002081905550505b600073ffffffffffffffffffffffffffffffffffffffff168273ffffffffffffffffffffffffffffffffffffffff1603610e375780600260008282540392505081905550610e84565b806000808473ffffffffffffffffffffffffffffffffffffffff1673ffffffffffffffffffffffffffffffffffffffff168152602001908152602001600020600082825401925050819055505b8173ffffffffffffffffffffffffffffffffffffffff168373ffffffffffffffffffffffffffffffffffffffff167fddf252ad1be2c89b69c2b068fc378daa952ba7f163c4a11628f55a4df523b3ef83604051610ee191906110be565b60405180910390a3505050565b600081519050919050565b600082825260208201905092915050565b60005b83811015610f28578082015181840152602081019050610f0d565b60008484015250505050565b6000601f19601f8301169050919050565b6000610f5082610eee565b610f5a8185610ef9565b9350610f6a818560208601610f0a565b610f7381610f34565b840191505092915050565b60006020820190508181036000830152610f988184610f45565b905092915050565b600080fd5b600073ffffffffffffffffffffffffffffffffffffffff82169050919050565b6000610fd082610fa5565b9050919050565b610fe081610fc5565b8114610feb57600080fd5b50565b600081359050610ffd81610fd7565b92915050565b6000819050919050565b61101681611003565b811461102157600080fd5b50565b6000813590506110338161100d565b92915050565b600080604083850312156110505761104f610fa0565b5b600061105e85828601610fee565b925050602061106f85828601611024565b9150509250929050565b60008115159050919050565b61108e81611079565b82525050565b60006020820190506110a96000830184611085565b92915050565b6110b881611003565b82525050565b60006020820190506110d360008301846110af565b92915050565b6000806000606084860312156110f2576110f1610fa0565b5b600061110086828701610fee565b935050602061111186828701610fee565b925050604061112286828701611024565b9150509250925092565b600060ff82169050919050565b6111428161112c565b82525050565b600060208201905061115d6000830184611139565b92915050565b60006020828403121561117957611178610fa0565b5b600061118784828501610fee565b91505092915050565b61119981610fc5565b82525050565b60006020820190506111b46000830184611190565b92915050565b600080604083850312156111d1576111d0610fa0565b5b60006111df85828601610fee565b92505060206111f085828601610fee565b9150509250929050565b7f4e487b7100000000000000000000000000000000000000000000000000000000600052602260045260246000fd5b6000600282049050600182168061124157607f821691505b602082108103611254576112536111fa565b5b50919050565b7f53656e642045544820746f2062757920746f6b656e7300000000000000000000600082015250565b6000611290601683610ef9565b915061129b8261125a565b602082019050919050565b600060208201905081810360008301526112bf81611283565b9050919050565b7f4e487b7100000000000000000000000000000000000000000000000000000000600052601160045260246000fd5b600061130082611003565b915061130b83611003565b925082820261131981611003565b915082820484148315176113305761132f6112c6565b5b5092915050565b600060608201905061134c6000830186611190565b61135960208301856110af565b61136660408301846110af565b949350505050565b600061137982611003565b915061138483611003565b925082820190508082111561139c5761139b6112c6565b5b9291505056fea264697066735822122053ea0df4fe2b1b73106ab72e5b51da78e09fac035414720267cce22c0f95b79864736f6c63430008140033",
  "linkReferences": {},
  "deployedLinkReferences": {}
}