{
  "_format": "hh-sol-artifact-1",
  "contractName": "BulletToken",
  "sourceName": "contracts/BulletToken.sol",
  "abi": [
    {
      "inputs": [],
      "stateMutability": "nonpayable",
      "type": "constructor"
    },
    {
      "inputs": [
        {
          "internalType": "address",
          "name": "spender",
          "type": "address"
        },
        {
          "internalType": "uint256",
          "name": "allowance",
          "type": "uint256"
        },
        {
          "internalType": "uint256",
          "name": "needed",
          "type": "uint256"
        }
      ],
      "name": "ERC20InsufficientAllowance",
      "type": "error"
    },
    {
      "inputs": [
        {
          "internalType": "address",
          "name": "sender",
          "type": "address"
        },
        {
          "internalType": "uint256",
          "name": "balance",
          "type": "uint256"
        },
        {
          "internalType": "uint256",
          "name": "needed",
          "type": "uint256"
        }
      ],
      "name": "ERC20InsufficientBalance",
      "type": "error"
    },
    {
      "inputs": [
        {
          "internalType": "address",
          "name": "approver",
          "type": "address"
        }
      ],
      "name": "ERC20InvalidApprover",
      "type": "error"
    },
    {
      "inputs": [
        {
          "internalType": "address",
          "name": "receiver",
          "type": "address"
        }
      ],
      "name": "ERC20InvalidReceiver",
      "type": "error"
    },
    {
      "inputs": [
        {
          "internalType": "address",
          "name": "sender",
          "type": "address"
        }
      ],
      "name": "ERC20InvalidSender",
      "type": "error"
    },
    {
      "inputs": [
        {
          "internalType": "address",
          "name": "spender",
          "type": "address"
        }
      ],
      "name": "ERC20InvalidSpender",
      "type": "error"
    },
    {
      "inputs": [
        {
          "internalType": "address",
          "name": "owner",
          "type": "address"
        }
      ],
      "name": "OwnableInvalidOwner",
      "type": "error"
    },
    {
      "inputs": [
        {
          "internalType": "address",
          "name": "account",
          "type": "address"
        }
      ],
      "name": "OwnableUnauthorizedAccount",
      "type": "error"
    },
    {
      "anonymous": false,
      "inputs": [
        {
          "indexed": true,
          "internalType": "address",
          "name": "owner",
          "type": "address"
        },
        {
          "indexed": true,
          "internalType": "address",
          "name": "spender",
          "type": "address"
        },
        {
          "indexed": false,
          "internalType": "uint256",
          "name": "value",
          "type": "uint256"
        }
      ],
      "name": "Approval",
      "type": "event"
    },
    {
      "anonymous": false,
      "inputs": [
        {
          "indexed": true,
          "internalType": "address",
          "name": "previousOwner",
          "type": "address"
        },
        {
          "indexed": true,
          "internalType": "address",
          "name": "newOwner",
          "type": "address"
        }
      ],
      "name": "OwnershipTransferred",
      "type": "event"
    },
    {
      "anonymous": false,
      "inputs": [
        {
          "indexed": true,
          "internalType": "address",
          "name": "from",
          "type": "address"
        },
        {
          "indexed": true,
          "internalType": "address",
          "name": "to",
          "type": "address"
        },
        {
          "indexed": false,
          "internalType": "uint256",
          "name": "value",
          "type": "uint256"
        }
      ],
      "name": "Transfer",
      "type": "event"
    },
    {
      "inputs": [
        {
          "internalType": "address",
          "name": "minter",
          "type": "address"
        }
      ],
      "name": "addMinter",
      "outputs": [],
      "stateMutability": "nonpayable",
      "type": "function"
    },
    {
      "inputs": [
        {
          "internalType": "address",
          "name": "owner",
          "type": "address"
        },
        {
          "internalType": "address",
          "name": "spender",
          "type": "address"
        }
      ],
      "name": "allowance",
      "outputs": [
        {
          "internalType": "uint256",
          "name": "",
          "type": "uint256"
        }
      ],
      "stateMutability": "view",
      "type": "function"
    },
    {
      "inputs": [
        {
          "internalType": "address",
          "name": "spender",
          "type": "address"
        },
        {
          "internalType": "uint256",
          "name": "value",
          "type": "uint256"
        }
      ],
      "name": "approve",
      "outputs": [
        {
          "internalType": "bool",
          "name": "",
          "type": "bool"
        }
      ],
      "stateMutability": "nonpayable",
      "type": "function"
    },
    {
      "inputs": [
        {
          "internalType": "address",
          "name": "account",
          "type": "address"
        }
      ],
      "name": "balanceOf",
      "outputs": [
        {
          "internalType": "uint256",
          "name": "",
          "type": "uint256"
        }
      ],
      "stateMutability": "view",
      "type": "function"
    },
    {
      "inputs": [],
      "name": "buyTokens",
      "outputs": [],
      "stateMutability": "payable",
      "type": "function"
    },
    {
      "inputs": [],
      "name": "decimals",
      "outputs": [
        {
          "internalType": "uint8",
          "name": "",
          "type": "uint8"
        }
      ],
      "stateMutability": "view",
      "type": "function"
    },
    {
      "inputs": [
        {
          "internalType": "address",
          "name": "to",
          "type": "address"
        },
        {
          "internalType": "uint256",
          "name": "amount",
          "type": "uint256"
        }
      ],
      "name": "mint",
      "outputs": [],
      "stateMutability": "nonpayable",
      "type": "function"
    },
    {
      "inputs": [
        {
          "internalType": "address",
          "name": "",
          "type": "address"
        }
      ],
      "name": "minters",
      "outputs": [
        {
          "internalType": "bool",
          "name": "",
          "type": "bool"
        }
      ],
      "stateMutability": "view",
      "type": "function"
    },
    {
      "inputs": [],
      "name": "name",
      "outputs": [
        {
          "internalType": "string",
          "name": "",
          "type": "string"
        }
      ],
      "stateMutability": "view",
      "type": "function"
    },
    {
      "inputs": [],
      "name": "owner",
      "outputs": [
        {
          "internalType": "address",
          "name": "",
          "type": "address"
        }
      ],
      "stateMutability": "view",
      "type": "function"
    },
    {
      "inputs": [],
      "name": "rate",
      "outputs": [
        {
          "internalType": "uint256",
          "name": "",
          "type": "uint256"
        }
      ],
      "stateMutability": "view",
      "type": "function"
    },
    {
      "inputs": [],
      "name": "renounceOwnership",
      "outputs": [],
      "stateMutability": "nonpayable",
      "type": "function"
    },
    {
      "inputs": [],
      "name": "symbol",
      "outputs": [
        {
          "internalType": "string",
          "name": "",
          "type": "string"
        }
      ],
      "stateMutability": "view",
      "type": "function"
    },
    {
      "inputs": [],
      "name": "totalSupply",
      "outputs": [
        {
          "internalType": "uint256",
          "name": "",
          "type": "uint256"
        }
      ],
      "stateMutability": "view",
      "type": "function"
    },
    {
      "inputs": [
        {
          "internalType": "address",
          "name": "to",
          "type": "address"
        },
        {
          "internalType": "uint256",
          "name": "value",
          "type": "uint256"
        }
      ],
      "name": "transfer",
      "outputs": [
        {
          "internalType": "bool",
          "name": "",
          "type": "bool"
        }
      ],
      "stateMutability": "nonpayable",
      "type": "function"
    },
    {
      "inputs": [
        {
          "internalType": "address",
          "name": "from",
          "type": "address"
        },
        {
          "internalType": "address",
          "name": "to",
          "type": "address"
        },
        {
          "internalType": "uint256",
          "name": "value",
          "type": "uint256"
        }
      ],
      "name": "transferFrom",
      "outputs": [
        {
          "internalType": "bool",
          "name": "",
          "type": "bool"
        }
      ],
      "stateMutability": "nonpayable",
      "type": "function"
    },
    {
      "inputs": [
        {
          "internalType": "address",
          "name": "newOwner",
          "type": "address"
        }
      ],
      "name": "transferOwnership",
      "outputs": [],
      "stateMutability": "nonpayable",
      "type": "function"
    }
  ],
  "bytecode": "0x60806040526103e86006553480156200001757600080fd5b50336040518060400160405280600c81526020017f42756c6c657420546f6b656e00000000000000000000000000000000000000008152506040518060400160405280600681526020017f42554c4c455400000000000000000000000000000000000000000000000000008152508160039081620000969190620004d0565b508060049081620000a89190620004d0565b505050600073ffffffffffffffffffffffffffffffffffffffff168173ffffffffffffffffffffffffffffffffffffffff1603620001205760006040517f1e4fbdf7000000000000000000000000000000000000000000000000000000008152600401620001179190620005fc565b60405180910390fd5b62000131816200019060201b60201c565b506001600760003373ffffffffffffffffffffffffffffffffffffffff1673ffffffffffffffffffffffffffffffffffffffff16815260200190815260200160002060006101000a81548160ff02191690831515021790555062000619565b6000600560009054906101000a900473ffffffffffffffffffffffffffffffffffffffff16905081600560006101000a81548173ffffffffffffffffffffffffffffffffffffffff021916908373ffffffffffffffffffffffffffffffffffffffff1602179055508173ffffffffffffffffffffffffffffffffffffffff168173ffffffffffffffffffffffffffffffffffffffff167f8be0079c531659141344cd1fd0a4f28419497f9722a3daafe3b4186f6b6457e060405160405180910390a35050565b600081519050919050565b7f4e487b7100000000000000000000000000000000000000000000000000000000600052604160045260246000fd5b7f4e487b7100000000000000000000000000000000000000000000000000000000600052602260045260246000fd5b60006002820490506001821680620002d857607f821691505b602082108103620002ee57620002ed62000290565b5b50919050565b60008190508160005260206000209050919050565b60006020601f8301049050919050565b600082821b905092915050565b600060088302620003587fffffffffffffffffffffffffffffffffffffffffffffffffffffffffffffffff8262000319565b62000364868362000319565b95508019841693508086168417925050509392505050565b6000819050919050565b6000819050919050565b6000620003b1620003ab620003a5846200037c565b62000386565b6200037c565b9050919050565b6000819050919050565b620003cd8362000390565b620003e5620003dc82620003b8565b84845462000326565b825550505050565b600090565b620003fc620003ed565b62000409818484620003c2565b505050565b5b81811015620004315762000425600082620003f2565b6001810190506200040f565b5050565b601f82111562000480576200044a81620002f4565b620004558462000309565b8101602085101562000465578190505b6200047d620004748562000309565b8301826200040e565b50505b505050565b600082821c905092915050565b6000620004a56000198460080262000485565b1980831691505092915050565b6000620004c0838362000492565b9150826002028217905092915050565b620004db8262000256565b67ffffffffffffffff811115620004f757620004f662000261565b5b620005038254620002bf565b6200051082828562000435565b600060209050601f83116001811462000548576000841562000533578287015190505b6200053f8582620004b2565b865550620005af565b601f1984166200055886620002f4565b60005b8281101562000582578489015182556001820191506020850194506020810190506200055b565b86831015620005a257848901516200059e601f89168262000492565b8355505b6001600288020188555050505b505050505050565b600073ffffffffffffffffffffffffffffffffffffffff82169050919050565b6000620005e482620005b7565b9050919050565b620005f681620005d7565b82525050565b6000602082019050620006136000830184620005eb565b92915050565b61159780620006296000396000f3fe6080604052600436106100fe5760003560e01c8063715018a611610095578063a9059cbb11610064578063a9059cbb14610325578063d0febe4c14610362578063dd62ed3e1461036c578063f2fde38b146103a9578063f46eccc4146103d2576100fe565b8063715018a61461028f5780638da5cb5b146102a657806395d89b41146102d1578063983b2d56146102fc576100fe565b80632c4e722e116100d15780632c4e722e146101d3578063313ce567146101fe57806340c10f191461022957806370a0823114610252576100fe565b806306fdde0314610103578063095ea7b31461012e57806318160ddd1461016b57806323b872dd14610196575b600080fd5b34801561010f57600080fd5b5061011861040f565b60405161012591906110d1565b60405180910390f35b34801561013a57600080fd5b506101556004803603810190610150919061118c565b6104a1565b60405161016291906111e7565b60405180910390f35b34801561017757600080fd5b506101806104c4565b60405161018d9190611211565b60405180910390f35b3480156101a257600080fd5b506101bd60048036038101906101b8919061122c565b6104ce565b6040516101ca91906111e7565b60405180910390f35b3480156101df57600080fd5b506101e86104fd565b6040516101f59190611211565b60405180910390f35b34801561020a57600080fd5b50610213610503565b604051610220919061129b565b60405180910390f35b34801561023557600080fd5b50610250600480360381019061024b919061118c565b61050c565b005b34801561025e57600080fd5b50610279600480360381019061027491906112b6565b6105a6565b6040516102869190611211565b60405180910390f35b34801561029b57600080fd5b506102a46105ee565b005b3480156102b257600080fd5b506102bb610602565b6040516102c891906112f2565b60405180910390f35b3480156102dd57600080fd5b506102e661062c565b6040516102f391906110d1565b60405180910390f35b34801561030857600080fd5b50610323600480360381019061031e91906112b6565b6106be565b005b34801561033157600080fd5b5061034c6004803603810190610347919061118c565b610721565b60405161035991906111e7565b60405180910390f35b61036a610744565b005b34801561037857600080fd5b50610393600480360381019061038e919061130d565b6107a6565b6040516103a09190611211565b60405180910390f35b3480156103b557600080fd5b506103d060048036038101906103cb91906112b6565b61082d565b005b3480156103de57600080fd5b506103f960048036038101906103f491906112b6565b6108b3565b60405161040691906111e7565b60405180910390f35b60606003805461041e9061137c565b80601f016020809104026020016040519081016040528092919081815260200182805461044a9061137c565b80156104975780601f1061046c57610100808354040283529160200191610497565b820191906000526020600020905b81548152906001019060200180831161047a57829003601f168201915b5050505050905090565b6000806104ac6108d3565b90506104b98185856108db565b600191505092915050565b6000600254905090565b6000806104d96108d3565b90506104e68582856108ed565b6104f1858585610982565b60019150509392505050565b60065481565b60006012905090565b600760003373ffffffffffffffffffffffffffffffffffffffff1673ffffffffffffffffffffffffffffffffffffffff16815260200190815260200160002060009054906101000a900460ff16610598576040517f08c379a000000000000000000000000000000000000000000000000000000000815260040161058f906113f9565b60405180910390fd5b6105a28282610a76565b5050565b60008060008373ffffffffffffffffffffffffffffffffffffffff1673ffffffffffffffffffffffffffffffffffffffff168152602001908152602001600020549050919050565b6105f6610af8565b6106006000610b7f565b565b6000600560009054906101000a900473ffffffffffffffffffffffffffffffffffffffff16905090565b60606004805461063b9061137c565b80601f01602080910402602001604051908101604052809291908181526020018280546106679061137c565b80156106b45780601f10610689576101008083540402835291602001916106b4565b820191906000526020600020905b81548152906001019060200180831161069757829003601f168201915b5050505050905090565b6106c6610af8565b6001600760008373ffffffffffffffffffffffffffffffffffffffff1673ffffffffffffffffffffffffffffffffffffffff16815260200190815260200160002060006101000a81548160ff02191690831515021790555050565b60008061072c6108d3565b9050610739818585610982565b600191505092915050565b60003411610787576040517f08c379a000000000000000000000000000000000000000000000000000000000815260040161077e90611465565b60405180910390fd5b60006006543461079791906114b4565b90506107a33382610a76565b50565b6000600160008473ffffffffffffffffffffffffffffffffffffffff1673ffffffffffffffffffffffffffffffffffffffff16815260200190815260200160002060008373ffffffffffffffffffffffffffffffffffffffff1673ffffffffffffffffffffffffffffffffffffffff16815260200190815260200160002054905092915050565b610835610af8565b600073ffffffffffffffffffffffffffffffffffffffff168173ffffffffffffffffffffffffffffffffffffffff16036108a75760006040517f1e4fbdf700000000000000000000000000000000000000000000000000000000815260040161089e91906112f2565b60405180910390fd5b6108b081610b7f565b50565b60076020528060005260406000206000915054906101000a900460ff1681565b600033905090565b6108e88383836001610c45565b505050565b60006108f984846107a6565b90507fffffffffffffffffffffffffffffffffffffffffffffffffffffffffffffffff81101561097c578181101561096c578281836040517ffb8f41b2000000000000000000000000000000000000000000000000000000008152600401610963939291906114f6565b60405180910390fd5b61097b84848484036000610c45565b5b50505050565b600073ffffffffffffffffffffffffffffffffffffffff168373ffffffffffffffffffffffffffffffffffffffff16036109f45760006040517f96c6fd1e0000000000000000000000000000000000000000000000000000000081526004016109eb91906112f2565b60405180910390fd5b600073ffffffffffffffffffffffffffffffffffffffff168273ffffffffffffffffffffffffffffffffffffffff1603610a665760006040517fec442f05000000000000000000000000000000000000000000000000000000008152600401610a5d91906112f2565b60405180910390fd5b610a71838383610e1c565b505050565b600073ffffffffffffffffffffffffffffffffffffffff168273ffffffffffffffffffffffffffffffffffffffff1603610ae85760006040517fec442f05000000000000000000000000000000000000000000000000000000008152600401610adf91906112f2565b60405180910390fd5b610af460008383610e1c565b5050565b610b006108d3565b73ffffffffffffffffffffffffffffffffffffffff16610b1e610602565b73ffffffffffffffffffffffffffffffffffffffff1614610b7d57610b416108d3565b6040517f118cdaa7000000000000000000000000000000000000000000000000000000008152600401610b7491906112f2565b60405180910390fd5b565b6000600560009054906101000a900473ffffffffffffffffffffffffffffffffffffffff16905081600560006101000a81548173ffffffffffffffffffffffffffffffffffffffff021916908373ffffffffffffffffffffffffffffffffffffffff1602179055508173ffffffffffffffffffffffffffffffffffffffff168173ffffffffffffffffffffffffffffffffffffffff167f8be0079c531659141344cd1fd0a4f28419497f9722a3daafe3b4186f6b6457e060405160405180910390a35050565b600073ffffffffffffffffffffffffffffffffffffffff168473ffffffffffffffffffffffffffffffffffffffff1603610cb75760006040517fe602df05000000000000000000000000000000000000000000000000000000008152600401610cae91906112f2565b60405180910390fd5b600073ffffffffffffffffffffffffffffffffffffffff168373ffffffffffffffffffffffffffffffffffffffff1603610d295760006040517f94280d62000000000000000000000000000000000000000000000000000000008152600401610d2091906112f2565b60405180910390fd5b81600160008673ffffffffffffffffffffffffffffffffffffffff1673ffffffffffffffffffffffffffffffffffffffff16815260200190815260200160002060008573ffffffffffffffffffffffffffffffffffffffff1673ffffffffffffffffffffffffffffffffffffffff168152602001908152602001600020819055508015610e16578273ffffffffffffffffffffffffffffffffffffffff168473ffffffffffffffffffffffffffffffffffffffff167f8c5be1e5ebec7d5bd14f71427d1e84f3dd0314c0f7b2291e5b200ac8c7c3b92584604051610e0d9190611211565b60405180910390a35b50505050565b600073ffffffffffffffffffffffffffffffffffffffff168373ffffffffffffffffffffffffffffffffffffffff1603610e6e578060026000828254610e62919061152d565b92505081905550610f41565b60008060008573ffffffffffffffffffffffffffffffffffffffff1673ffffffffffffffffffffffffffffffffffffffff16815260200190815260200160002054905081811015610efa578381836040517fe450d38c000000000000000000000000000000000000000000000000000000008152600401610ef1939291906114f6565b60405180910390fd5b8181036000808673ffffffffffffffffffffffffffffffffffffffff1673ffffffffffffffffffffffffffffffffffffffff16815260200190815260200160002081905550505b600073ffffffffffffffffffffffffffffffffffffffff168273ffffffffffffffffffffffffffffffffffffffff1603610f8a5780600260008282540392505081905550610fd7565b806000808473ffffffffffffffffffffffffffffffffffffffff1673ffffffffffffffffffffffffffffffffffffffff168152602001908152602001600020600082825401925050819055505b8173ffffffffffffffffffffffffffffffffffffffff168373ffffffffffffffffffffffffffffffffffffffff167fddf252ad1be2c89b69c2b068fc378daa952ba7f163c4a11628f55a4df523b3ef836040516110349190611211565b60405180910390a3505050565b600081519050919050565b600082825260208201905092915050565b60005b8381101561107b578082015181840152602081019050611060565b60008484015250505050565b6000601f19601f8301169050919050565b60006110a382611041565b6110ad818561104c565b93506110bd81856020860161105d565b6110c681611087565b840191505092915050565b600060208201905081810360008301526110eb8184611098565b905092915050565b600080fd5b600073ffffffffffffffffffffffffffffffffffffffff82169050919050565b6000611123826110f8565b9050919050565b61113381611118565b811461113e57600080fd5b50565b6000813590506111508161112a565b92915050565b6000819050919050565b61116981611156565b811461117457600080fd5b50565b60008135905061118681611160565b92915050565b600080604083850312156111a3576111a26110f3565b5b60006111b185828601611141565b92505060206111c285828601611177565b9150509250929050565b60008115159050919050565b6111e1816111cc565b82525050565b60006020820190506111fc60008301846111d8565b92915050565b61120b81611156565b82525050565b60006020820190506112266000830184611202565b92915050565b600080600060608486031215611245576112446110f3565b5b600061125386828701611141565b935050602061126486828701611141565b925050604061127586828701611177565b9150509250925092565b600060ff82169050919050565b6112958161127f565b82525050565b60006020820190506112b0600083018461128c565b92915050565b6000602082840312156112cc576112cb6110f3565b5b60006112da84828501611141565b91505092915050565b6112ec81611118565b82525050565b600060208201905061130760008301846112e3565b92915050565b60008060408385031215611324576113236110f3565b5b600061133285828601611141565b925050602061134385828601611141565b9150509250929050565b7f4e487b7100000000000000000000000000000000000000000000000000000000600052602260045260246000fd5b6000600282049050600182168061139457607f821691505b6020821081036113a7576113a661134d565b5b50919050565b7f4e6f7420617574686f72697a6564000000000000000000000000000000000000600082015250565b60006113e3600e8361104c565b91506113ee826113ad565b602082019050919050565b60006020820190508181036000830152611412816113d6565b9050919050565b7f53656e6420455448000000000000000000000000000000000000000000000000600082015250565b600061144f60088361104c565b915061145a82611419565b602082019050919050565b6000602082019050818103600083015261147e81611442565b9050919050565b7f4e487b7100000000000000000000000000000000000000000000000000000000600052601160045260246000fd5b60006114bf82611156565b91506114ca83611156565b92508282026114d881611156565b915082820484148315176114ef576114ee611485565b5b5092915050565b600060608201905061150b60008301866112e3565b6115186020830185611202565b6115256040830184611202565b949350505050565b600061153882611156565b915061154383611156565b925082820190508082111561155b5761155a611485565b5b9291505056fea2646970667358221220481d168577f958834eed6bce8c388fed45f5ec153549959cbb0fdf8b8a1440bf64736f6c63430008140033",
  "linkReferences": {},
  "deployedLinkReferences": {}
}