{
  "_format": "hh-sol-artifact-1",
  "contractName": "CasinoCrowdfunding",
  "sourceName": "contracts/CasinoCrowdfunding.sol",
  "abi": [
    {
      "inputs": [
        {
          "internalType": "address",
          "name": "_tokenAddress",
          "type": "address"
        },
        {
          "internalType": "address payable",
          "name": "_rouletteAddress",
          "type": "address"
        },
        {
          "internalType": "uint256",
          "name": "_goal",
          "type": "uint256"
        },
        {
          "internalType": "uint256",
          "name": "_duration",
          "type": "uint256"
        }
      ],
      "stateMutability": "nonpayable",
      "type": "constructor"
    },
    {
      "inputs": [],
      "name": "campaign",
      "outputs": [
        {
          "internalType": "uint256",
          "name": "goal",
          "type": "uint256"
        },
        {
          "internalType": "uint256",
          "name": "raised",
          "type": "uint256"
        },
        {
          "internalType": "uint256",
          "name": "deadline",
          "type": "uint256"
        },
        {
          "internalType": "bool",
          "name": "finalized",
          "type": "bool"
        }
      ],
      "stateMutability": "view",
      "type": "function"
    },
    {
      "inputs": [],
      "name": "contribute",
      "outputs": [],
      "stateMutability": "payable",
      "type": "function"
    },
    {
      "inputs": [],
      "name": "finalizeCampaign",
      "outputs": [],
      "stateMutability": "nonpayable",
      "type": "function"
    },
    {
      "inputs": [],
      "name": "rouletteAddress",
      "outputs": [
        {
          "internalType": "address payable",
          "name": "",
          "type": "address"
        }
      ],
      "stateMutability": "view",
      "type": "function"
    },
    {
      "inputs": [],
      "name": "token",
      "outputs": [
        {
          "internalType": "contract IBulletToken",
          "name": "",
          "type": "address"
        }
      ],
      "stateMutability": "view",
      "type": "function"
    }
  ],
  "bytecode": "0x60806040523480156200001157600080fd5b50604051620009ac380380620009ac833981810160405281019062000037919062000221565b836000806101000a81548173ffffffffffffffffffffffffffffffffffffffff021916908373ffffffffffffffffffffffffffffffffffffffff16021790555082600160006101000a81548173ffffffffffffffffffffffffffffffffffffffff021916908373ffffffffffffffffffffffffffffffffffffffff1602179055506040518060800160405280838152602001600081526020018242620000de9190620002c2565b815260200160001515815250600260008201518160000155602082015181600101556040820151816002015560608201518160030160006101000a81548160ff02191690831515021790555090505050505050620002fd565b600080fd5b600073ffffffffffffffffffffffffffffffffffffffff82169050919050565b600062000169826200013c565b9050919050565b6200017b816200015c565b81146200018757600080fd5b50565b6000815190506200019b8162000170565b92915050565b6000620001ae826200013c565b9050919050565b620001c081620001a1565b8114620001cc57600080fd5b50565b600081519050620001e081620001b5565b92915050565b6000819050919050565b620001fb81620001e6565b81146200020757600080fd5b50565b6000815190506200021b81620001f0565b92915050565b600080600080608085870312156200023e576200023d62000137565b5b60006200024e878288016200018a565b94505060206200026187828801620001cf565b935050604062000274878288016200020a565b925050606062000287878288016200020a565b91505092959194509250565b7f4e487b7100000000000000000000000000000000000000000000000000000000600052601160045260246000fd5b6000620002cf82620001e6565b9150620002dc83620001e6565b9250828201905080821115620002f757620002f662000293565b5b92915050565b61069f806200030d6000396000f3fe60806040526004361061004a5760003560e01c80630f5494701461004f578063811e539c1461007a578063a1211bc0146100a8578063d7bb99ba146100bf578063fc0c546a146100c9575b600080fd5b34801561005b57600080fd5b506100646100f4565b6040516100719190610383565b60405180910390f35b34801561008657600080fd5b5061008f61011a565b60405161009f94939291906103d2565b60405180910390f35b3480156100b457600080fd5b506100bd610145565b005b6100c7610221565b005b3480156100d557600080fd5b506100de61031e565b6040516100eb9190610476565b60405180910390f35b600160009054906101000a900473ffffffffffffffffffffffffffffffffffffffff1681565b60028060000154908060010154908060020154908060030160009054906101000a900460ff16905084565b600260030160009054906101000a900460ff1615610198576040517f08c379a000000000000000000000000000000000000000000000000000000000815260040161018f906104ee565b60405180910390fd5b6001600260030160006101000a81548160ff021916908315150217905550600160009054906101000a900473ffffffffffffffffffffffffffffffffffffffff1673ffffffffffffffffffffffffffffffffffffffff166108fc479081150290604051600060405180830381858888f1935050505015801561021e573d6000803e3d6000fd5b50565b60028001544210610267576040517f08c379a000000000000000000000000000000000000000000000000000000000815260040161025e9061055a565b60405180910390fd5b346002600101600082825461027c91906105a9565b9250508190555060008054906101000a900473ffffffffffffffffffffffffffffffffffffffff1673ffffffffffffffffffffffffffffffffffffffff166340c10f19336064346102cd91906105dd565b6040518363ffffffff1660e01b81526004016102ea929190610640565b600060405180830381600087803b15801561030457600080fd5b505af1158015610318573d6000803e3d6000fd5b50505050565b60008054906101000a900473ffffffffffffffffffffffffffffffffffffffff1681565b600073ffffffffffffffffffffffffffffffffffffffff82169050919050565b600061036d82610342565b9050919050565b61037d81610362565b82525050565b60006020820190506103986000830184610374565b92915050565b6000819050919050565b6103b18161039e565b82525050565b60008115159050919050565b6103cc816103b7565b82525050565b60006080820190506103e760008301876103a8565b6103f460208301866103a8565b61040160408301856103a8565b61040e60608301846103c3565b95945050505050565b6000819050919050565b600061043c61043761043284610342565b610417565b610342565b9050919050565b600061044e82610421565b9050919050565b600061046082610443565b9050919050565b61047081610455565b82525050565b600060208201905061048b6000830184610467565b92915050565b600082825260208201905092915050565b7f416c72656164792066696e616c697a6564000000000000000000000000000000600082015250565b60006104d8601183610491565b91506104e3826104a2565b602082019050919050565b60006020820190508181036000830152610507816104cb565b9050919050565b7f43616d706169676e20656e646564000000000000000000000000000000000000600082015250565b6000610544600e83610491565b915061054f8261050e565b602082019050919050565b6000602082019050818103600083015261057381610537565b9050919050565b7f4e487b7100000000000000000000000000000000000000000000000000000000600052601160045260246000fd5b60006105b48261039e565b91506105bf8361039e565b92508282019050808211156105d7576105d661057a565b5b92915050565b60006105e88261039e565b91506105f38361039e565b92508282026106018161039e565b915082820484148315176106185761061761057a565b5b5092915050565b600061062a82610342565b9050919050565b61063a8161061f565b82525050565b60006040820190506106556000830185610631565b61066260208301846103a8565b939250505056fea2646970667358221220f20d911ce59e4cfe0a369217d54e67dfbeedbb7bf82bd3f2e844e4b2887c1dab64736f6c63430008140033",
  "linkReferences": {},
  "deployedLinkReferences": {}
}