{
  "_format": "hh-sol-artifact-1",
  "contractName": "CasinoCrowdfunding",
  "sourceName": "contracts/CasinoCrowdfunding.sol",
  "abi": [
    {
      "inputs": [
        {
          "internalType": "address",
          "name": "_tokenAddress",
          "type": "address"
        },
        {
          "internalType": "address payable",
          "name": "_rouletteAddress",
          "type": "address"
        }
      ],
      "stateMutability": "nonpayable",
      "type": "constructor"
    },
    {
      "inputs": [],
      "name": "campaignCount",
      "outputs": [
        {
          "internalType": "uint256",
          "name": "",
          "type": "uint256"
        }
      ],
      "stateMutability": "view",
      "type": "function"
    },
    {
      "inputs": [
        {
          "internalType": "uint256",
          "name": "",
          "type": "uint256"
        }
      ],
      "name": "campaigns",
      "outputs": [
        {
          "internalType": "string",
          "name": "title",
          "type": "string"
        },
        {
          "internalType": "uint256",
          "name": "goal",
          "type": "uint256"
        },
        {
          "internalType": "uint256",
          "name": "raised",
          "type": "uint256"
        },
        {
          "internalType": "uint256",
          "name": "deadline",
          "type": "uint256"
        },
        {
          "internalType": "bool",
          "name": "finalized",
          "type": "bool"
        },
        {
          "internalType": "address",
          "name": "creator",
          "type": "address"
        }
      ],
      "stateMutability": "view",
      "type": "function"
    },
    {
      "inputs": [
        {
          "internalType": "uint256",
          "name": "_campaignId",
          "type": "uint256"
        }
      ],
      "name": "contribute",
      "outputs": [],
      "stateMutability": "payable",
      "type": "function"
    },
    {
      "inputs": [
        {
          "internalType": "uint256",
          "name": "",
          "type": "uint256"
        },
        {
          "internalType": "address",
          "name": "",
          "type": "address"
        }
      ],
      "name": "contributions",
      "outputs": [
        {
          "internalType": "uint256",
          "name": "",
          "type": "uint256"
        }
      ],
      "stateMutability": "view",
      "type": "function"
    },
    {
      "inputs": [
        {
          "internalType": "string",
          "name": "_title",
          "type": "string"
        },
        {
          "internalType": "uint256",
          "name": "_goal",
          "type": "uint256"
        },
        {
          "internalType": "uint256",
          "name": "_duration",
          "type": "uint256"
        }
      ],
      "name": "createCampaign",
      "outputs": [
        {
          "internalType": "uint256",
          "name": "",
          "type": "uint256"
        }
      ],
      "stateMutability": "nonpayable",
      "type": "function"
    },
    {
      "inputs": [
        {
          "internalType": "uint256",
          "name": "_campaignId",
          "type": "uint256"
        }
      ],
      "name": "finalizeCampaign",
      "outputs": [],
      "stateMutability": "nonpayable",
      "type": "function"
    },
    {
      "inputs": [
        {
          "internalType": "uint256",
          "name": "_id",
          "type": "uint256"
        }
      ],
      "name": "getCampaign",
      "outputs": [
        {
          "components": [
            {
              "internalType": "string",
              "name": "title",
              "type": "string"
            },
            {
              "internalType": "uint256",
              "name": "goal",
              "type": "uint256"
            },
            {
              "internalType": "uint256",
              "name": "raised",
              "type": "uint256"
            },
            {
              "internalType": "uint256",
              "name": "deadline",
              "type": "uint256"
            },
            {
              "internalType": "bool",
              "name": "finalized",
              "type": "bool"
            },
            {
              "internalType": "address",
              "name": "creator",
              "type": "address"
            }
          ],
          "internalType": "struct CasinoCrowdfunding.Campaign",
          "name": "",
          "type": "tuple"
        }
      ],
      "stateMutability": "view",
      "type": "function"
    },
    {
      "inputs": [
        {
          "internalType": "uint256",
          "name": "_campaignId",
          "type": "uint256"
        },
        {
          "internalType": "address",
          "name": "_user",
          "type": "address"
        }
      ],
      "name": "getContribution",
      "outputs": [
        {
          "internalType": "uint256",
          "name": "",
          "type": "uint256"
        }
      ],
      "stateMutability": "view",
      "type": "function"
    },
    {
      "inputs": [],
      "name": "rouletteAddress",
      "outputs": [
        {
          "internalType": "address payable",
          "name": "",
          "type": "address"
        }
      ],
      "stateMutability": "view",
      "type": "function"
    },
    {
      "inputs": [],
      "name": "token",
      "outputs": [
        {
          "internalType": "contract IBulletToken",
          "name": "",
          "type": "address"
        }
      ],
      "stateMutability": "view",
      "type": "function"
    }
  ],
  "bytecode": "0x60806040523480156200001157600080fd5b5060405162001d9438038062001d948339818101604052810190620000379190620002f4565b816000806101000a81548173ffffffffffffffffffffffffffffffffffffffff021916908373ffffffffffffffffffffffffffffffffffffffff16021790555080600160006101000a81548173ffffffffffffffffffffffffffffffffffffffff021916908373ffffffffffffffffffffffffffffffffffffffff1602179055506200010b6040518060400160405280601381526020017f496e697469616c20436173696e6f2046756e6400000000000000000000000000815250678ac7230489e8000062278d006200011460201b60201c565b50505062000753565b6000600460008154809291906200012b9062000374565b91905055506040518060c001604052808581526020018481526020016000815260200183426200015c9190620003c1565b81526020016000151581526020013373ffffffffffffffffffffffffffffffffffffffff168152506002600060045481526020019081526020016000206000820151816000019081620001b091906200066c565b5060208201518160010155604082015181600201556060820151816003015560808201518160040160006101000a81548160ff02191690831515021790555060a08201518160040160016101000a81548173ffffffffffffffffffffffffffffffffffffffff021916908373ffffffffffffffffffffffffffffffffffffffff16021790555090505060045490509392505050565b600080fd5b600073ffffffffffffffffffffffffffffffffffffffff82169050919050565b600062000277826200024a565b9050919050565b62000289816200026a565b81146200029557600080fd5b50565b600081519050620002a9816200027e565b92915050565b6000620002bc826200024a565b9050919050565b620002ce81620002af565b8114620002da57600080fd5b50565b600081519050620002ee81620002c3565b92915050565b600080604083850312156200030e576200030d62000245565b5b60006200031e8582860162000298565b92505060206200033185828601620002dd565b9150509250929050565b7f4e487b7100000000000000000000000000000000000000000000000000000000600052601160045260246000fd5b6000819050919050565b600062000381826200036a565b91507fffffffffffffffffffffffffffffffffffffffffffffffffffffffffffffffff8203620003b657620003b56200033b565b5b600182019050919050565b6000620003ce826200036a565b9150620003db836200036a565b9250828201905080821115620003f657620003f56200033b565b5b92915050565b600081519050919050565b7f4e487b7100000000000000000000000000000000000000000000000000000000600052604160045260246000fd5b7f4e487b7100000000000000000000000000000000000000000000000000000000600052602260045260246000fd5b600060028204905060018216806200047e57607f821691505b60208210810362000494576200049362000436565b5b50919050565b60008190508160005260206000209050919050565b60006020601f8301049050919050565b600082821b905092915050565b600060088302620004fe7fffffffffffffffffffffffffffffffffffffffffffffffffffffffffffffffff82620004bf565b6200050a8683620004bf565b95508019841693508086168417925050509392505050565b6000819050919050565b60006200054d6200054762000541846200036a565b62000522565b6200036a565b9050919050565b6000819050919050565b62000569836200052c565b62000581620005788262000554565b848454620004cc565b825550505050565b600090565b6200059862000589565b620005a58184846200055e565b505050565b5b81811015620005cd57620005c16000826200058e565b600181019050620005ab565b5050565b601f8211156200061c57620005e6816200049a565b620005f184620004af565b8101602085101562000601578190505b620006196200061085620004af565b830182620005aa565b50505b505050565b600082821c905092915050565b6000620006416000198460080262000621565b1980831691505092915050565b60006200065c83836200062e565b9150826002028217905092915050565b6200067782620003fc565b67ffffffffffffffff81111562000693576200069262000407565b5b6200069f825462000465565b620006ac828285620005d1565b600060209050601f831160018114620006e45760008415620006cf578287015190505b620006db85826200064e565b8655506200074b565b601f198416620006f4866200049a565b60005b828110156200071e57848901518255600182019150602085019450602081019050620006f7565b868310156200073e57848901516200073a601f8916826200062e565b8355505b6001600288020188555050505b505050505050565b61163180620007636000396000f3fe6080604052600436106100915760003560e01c80636b5ca27d116100595780636b5ca27d146101ba5780637274e30d146101e3578063c1cbbca71461020e578063e081dbf91461022a578063fc0c546a1461026757610091565b80630f54947014610096578063141961bc146100c15780633020580b146101035780633d891f59146101405780635598f8cc1461017d575b600080fd5b3480156100a257600080fd5b506100ab610292565b6040516100b89190610ac5565b60405180910390f35b3480156100cd57600080fd5b506100e860048036038101906100e39190610b2a565b6102b8565b6040516100fa96959493929190610c32565b60405180910390f35b34801561010f57600080fd5b5061012a60048036038101906101259190610dcf565b6103a9565b6040516101379190610e3e565b60405180910390f35b34801561014c57600080fd5b5061016760048036038101906101629190610e85565b6104d4565b6040516101749190610e3e565b60405180910390f35b34801561018957600080fd5b506101a4600480360381019061019f9190610b2a565b6104f9565b6040516101b19190610fc5565b60405180910390f35b3480156101c657600080fd5b506101e160048036038101906101dc9190610b2a565b610647565b005b3480156101ef57600080fd5b506101f86107a6565b6040516102059190610e3e565b60405180910390f35b61022860048036038101906102239190610b2a565b6107ac565b005b34801561023657600080fd5b50610251600480360381019061024c9190610e85565b6109b7565b60405161025e9190610e3e565b60405180910390f35b34801561027357600080fd5b5061027c610a12565b6040516102899190611046565b60405180910390f35b600160009054906101000a900473ffffffffffffffffffffffffffffffffffffffff1681565b60026020528060005260406000206000915090508060000180546102db90611090565b80601f016020809104026020016040519081016040528092919081815260200182805461030790611090565b80156103545780601f1061032957610100808354040283529160200191610354565b820191906000526020600020905b81548152906001019060200180831161033757829003601f168201915b5050505050908060010154908060020154908060030154908060040160009054906101000a900460ff16908060040160019054906101000a900473ffffffffffffffffffffffffffffffffffffffff16905086565b6000600460008154809291906103be906110f0565b91905055506040518060c001604052808581526020018481526020016000815260200183426103ed9190611138565b81526020016000151581526020013373ffffffffffffffffffffffffffffffffffffffff16815250600260006004548152602001908152602001600020600082015181600001908161043f919061130e565b5060208201518160010155604082015181600201556060820151816003015560808201518160040160006101000a81548160ff02191690831515021790555060a08201518160040160016101000a81548173ffffffffffffffffffffffffffffffffffffffff021916908373ffffffffffffffffffffffffffffffffffffffff16021790555090505060045490509392505050565b6003602052816000526040600020602052806000526040600020600091509150505481565b610501610a36565b600260008381526020019081526020016000206040518060c001604052908160008201805461052f90611090565b80601f016020809104026020016040519081016040528092919081815260200182805461055b90611090565b80156105a85780601f1061057d576101008083540402835291602001916105a8565b820191906000526020600020905b81548152906001019060200180831161058b57829003601f168201915b505050505081526020016001820154815260200160028201548152602001600382015481526020016004820160009054906101000a900460ff161515151581526020016004820160019054906101000a900473ffffffffffffffffffffffffffffffffffffffff1673ffffffffffffffffffffffffffffffffffffffff1673ffffffffffffffffffffffffffffffffffffffff16815250509050919050565b600060026000838152602001908152602001600020905080600301544210158061067957508060010154816002015410155b6106b8576040517f08c379a00000000000000000000000000000000000000000000000000000000081526004016106af9061142c565b60405180910390fd5b8060040160009054906101000a900460ff161561070a576040517f08c379a000000000000000000000000000000000000000000000000000000000815260040161070190611498565b60405180910390fd5b60018160040160006101000a81548160ff0219169083151502179055506000816002015411156107a257600160009054906101000a900473ffffffffffffffffffffffffffffffffffffffff1673ffffffffffffffffffffffffffffffffffffffff166108fc82600201549081150290604051600060405180830381858888f193505050501580156107a0573d6000803e3d6000fd5b505b5050565b60045481565b600060026000838152602001908152602001600020905080600301544210610809576040517f08c379a000000000000000000000000000000000000000000000000000000000815260040161080090611504565b60405180910390fd5b8060040160009054906101000a900460ff161561085b576040517f08c379a000000000000000000000000000000000000000000000000000000000815260040161085290611498565b60405180910390fd5b6000341161089e576040517f08c379a000000000000000000000000000000000000000000000000000000000815260040161089590611570565b60405180910390fd5b348160020160008282546108b29190611138565b92505081905550346003600084815260200190815260200160002060003373ffffffffffffffffffffffffffffffffffffffff1673ffffffffffffffffffffffffffffffffffffffff16815260200190815260200160002060008282546109199190611138565b9250508190555060008054906101000a900473ffffffffffffffffffffffffffffffffffffffff1673ffffffffffffffffffffffffffffffffffffffff166340c10f193360643461096a9190611590565b6040518363ffffffff1660e01b81526004016109879291906115d2565b600060405180830381600087803b1580156109a157600080fd5b505af19250505080156109b2575060015b505050565b60006003600084815260200190815260200160002060008373ffffffffffffffffffffffffffffffffffffffff1673ffffffffffffffffffffffffffffffffffffffff16815260200190815260200160002054905092915050565b60008054906101000a900473ffffffffffffffffffffffffffffffffffffffff1681565b6040518060c0016040528060608152602001600081526020016000815260200160008152602001600015158152602001600073ffffffffffffffffffffffffffffffffffffffff1681525090565b600073ffffffffffffffffffffffffffffffffffffffff82169050919050565b6000610aaf82610a84565b9050919050565b610abf81610aa4565b82525050565b6000602082019050610ada6000830184610ab6565b92915050565b6000604051905090565b600080fd5b600080fd5b6000819050919050565b610b0781610af4565b8114610b1257600080fd5b50565b600081359050610b2481610afe565b92915050565b600060208284031215610b4057610b3f610aea565b5b6000610b4e84828501610b15565b91505092915050565b600081519050919050565b600082825260208201905092915050565b60005b83811015610b91578082015181840152602081019050610b76565b60008484015250505050565b6000601f19601f8301169050919050565b6000610bb982610b57565b610bc38185610b62565b9350610bd3818560208601610b73565b610bdc81610b9d565b840191505092915050565b610bf081610af4565b82525050565b60008115159050919050565b610c0b81610bf6565b82525050565b6000610c1c82610a84565b9050919050565b610c2c81610c11565b82525050565b600060c0820190508181036000830152610c4c8189610bae565b9050610c5b6020830188610be7565b610c686040830187610be7565b610c756060830186610be7565b610c826080830185610c02565b610c8f60a0830184610c23565b979650505050505050565b600080fd5b600080fd5b7f4e487b7100000000000000000000000000000000000000000000000000000000600052604160045260246000fd5b610cdc82610b9d565b810181811067ffffffffffffffff82111715610cfb57610cfa610ca4565b5b80604052505050565b6000610d0e610ae0565b9050610d1a8282610cd3565b919050565b600067ffffffffffffffff821115610d3a57610d39610ca4565b5b610d4382610b9d565b9050602081019050919050565b82818337600083830152505050565b6000610d72610d6d84610d1f565b610d04565b905082815260208101848484011115610d8e57610d8d610c9f565b5b610d99848285610d50565b509392505050565b600082601f830112610db657610db5610c9a565b5b8135610dc6848260208601610d5f565b91505092915050565b600080600060608486031215610de857610de7610aea565b5b600084013567ffffffffffffffff811115610e0657610e05610aef565b5b610e1286828701610da1565b9350506020610e2386828701610b15565b9250506040610e3486828701610b15565b9150509250925092565b6000602082019050610e536000830184610be7565b92915050565b610e6281610c11565b8114610e6d57600080fd5b50565b600081359050610e7f81610e59565b92915050565b60008060408385031215610e9c57610e9b610aea565b5b6000610eaa85828601610b15565b9250506020610ebb85828601610e70565b9150509250929050565b600082825260208201905092915050565b6000610ee182610b57565b610eeb8185610ec5565b9350610efb818560208601610b73565b610f0481610b9d565b840191505092915050565b610f1881610af4565b82525050565b610f2781610bf6565b82525050565b610f3681610c11565b82525050565b600060c0830160008301518482036000860152610f598282610ed6565b9150506020830151610f6e6020860182610f0f565b506040830151610f816040860182610f0f565b506060830151610f946060860182610f0f565b506080830151610fa76080860182610f1e565b5060a0830151610fba60a0860182610f2d565b508091505092915050565b60006020820190508181036000830152610fdf8184610f3c565b905092915050565b6000819050919050565b600061100c61100761100284610a84565b610fe7565b610a84565b9050919050565b600061101e82610ff1565b9050919050565b600061103082611013565b9050919050565b61104081611025565b82525050565b600060208201905061105b6000830184611037565b92915050565b7f4e487b7100000000000000000000000000000000000000000000000000000000600052602260045260246000fd5b600060028204905060018216806110a857607f821691505b6020821081036110bb576110ba611061565b5b50919050565b7f4e487b7100000000000000000000000000000000000000000000000000000000600052601160045260246000fd5b60006110fb82610af4565b91507fffffffffffffffffffffffffffffffffffffffffffffffffffffffffffffffff820361112d5761112c6110c1565b5b600182019050919050565b600061114382610af4565b915061114e83610af4565b9250828201905080821115611166576111656110c1565b5b92915050565b60008190508160005260206000209050919050565b60006020601f8301049050919050565b600082821b905092915050565b6000600883026111ce7fffffffffffffffffffffffffffffffffffffffffffffffffffffffffffffffff82611191565b6111d88683611191565b95508019841693508086168417925050509392505050565b600061120b61120661120184610af4565b610fe7565b610af4565b9050919050565b6000819050919050565b611225836111f0565b61123961123182611212565b84845461119e565b825550505050565b600090565b61124e611241565b61125981848461121c565b505050565b5b8181101561127d57611272600082611246565b60018101905061125f565b5050565b601f8211156112c2576112938161116c565b61129c84611181565b810160208510156112ab578190505b6112bf6112b785611181565b83018261125e565b50505b505050565b600082821c905092915050565b60006112e5600019846008026112c7565b1980831691505092915050565b60006112fe83836112d4565b9150826002028217905092915050565b61131782610b57565b67ffffffffffffffff8111156113305761132f610ca4565b5b61133a8254611090565b611345828285611281565b600060209050601f8311600181146113785760008415611366578287015190505b61137085826112f2565b8655506113d8565b601f1984166113868661116c565b60005b828110156113ae57848901518255600182019150602085019450602081019050611389565b868310156113cb57848901516113c7601f8916826112d4565b8355505b6001600288020188555050505b505050505050565b7f4e6f74206d657400000000000000000000000000000000000000000000000000600082015250565b6000611416600783610b62565b9150611421826113e0565b602082019050919050565b6000602082019050818103600083015261144581611409565b9050919050565b7f46696e616c697a65640000000000000000000000000000000000000000000000600082015250565b6000611482600983610b62565b915061148d8261144c565b602082019050919050565b600060208201905081810360008301526114b181611475565b9050919050565b7f456e646564000000000000000000000000000000000000000000000000000000600082015250565b60006114ee600583610b62565b91506114f9826114b8565b602082019050919050565b6000602082019050818103600083015261151d816114e1565b9050919050565b7f5a65726f20455448000000000000000000000000000000000000000000000000600082015250565b600061155a600883610b62565b915061156582611524565b602082019050919050565b600060208201905081810360008301526115898161154d565b9050919050565b600061159b82610af4565b91506115a683610af4565b92508282026115b481610af4565b915082820484148315176115cb576115ca6110c1565b5b5092915050565b60006040820190506115e76000830185610c23565b6115f46020830184610be7565b939250505056fea2646970667358221220f0aea9268cc87b4a230088180b85c1e94185bb0a1c08e01d4f128bde32350ab464736f6c63430008140033",
  "linkReferences": {},
  "deployedLinkReferences": {}
}