{
  "_format": "hh-sol-artifact-1",
  "contractName": "Roulette",
  "sourceName": "contracts/Roulette.sol",
  "abi": [
    {
      "inputs": [
        {
          "internalType": "address",
          "name": "_tokenAddress",
          "type": "address"
        }
      ],
      "stateMutability": "nonpayable",
      "type": "constructor"
    },
    {
      "anonymous": false,
      "inputs": [
        {
          "indexed": true,
          "internalType": "address",
          "name": "player",
          "type": "address"
        },
        {
          "indexed": false,
          "internalType": "uint256",
          "name": "bet",
          "type": "uint256"
        },
        {
          "indexed": false,
          "internalType": "uint256",
          "name": "ammo",
          "type": "uint256"
        },
        {
          "indexed": false,
          "internalType": "bool",
          "name": "win",
          "type": "bool"
        },
        {
          "indexed": false,
          "internalType": "uint256",
          "name": "result",
          "type": "uint256"
        }
      ],
      "name": "GamePlayed",
      "type": "event"
    },
    {
      "inputs": [
        {
          "internalType": "uint256",
          "name": "ammo",
          "type": "uint256"
        }
      ],
      "name": "getMultiplier",
      "outputs": [
        {
          "internalType": "uint256",
          "name": "",
          "type": "uint256"
        }
      ],
      "stateMutability": "pure",
      "type": "function"
    },
    {
      "inputs": [],
      "name": "owner",
      "outputs": [
        {
          "internalType": "address",
          "name": "",
          "type": "address"
        }
      ],
      "stateMutability": "view",
      "type": "function"
    },
    {
      "inputs": [
        {
          "internalType": "uint256",
          "name": "betAmount",
          "type": "uint256"
        },
        {
          "internalType": "uint256",
          "name": "ammoCount",
          "type": "uint256"
        }
      ],
      "name": "play",
      "outputs": [],
      "stateMutability": "nonpayable",
      "type": "function"
    },
    {
      "inputs": [],
      "name": "token",
      "outputs": [
        {
          "internalType": "contract IERC20",
          "name": "",
          "type": "address"
        }
      ],
      "stateMutability": "view",
      "type": "function"
    },
    {
      "inputs": [
        {
          "internalType": "uint256",
          "name": "amount",
          "type": "uint256"
        }
      ],
      "name": "withdrawTokens",
      "outputs": [],
      "stateMutability": "nonpayable",
      "type": "function"
    },
    {
      "stateMutability": "payable",
      "type": "receive"
    }
  ],
  "bytecode": "0x608060405234801561001057600080fd5b50604051610e54380380610e548339818101604052810190610032919061011c565b806000806101000a81548173ffffffffffffffffffffffffffffffffffffffff021916908373ffffffffffffffffffffffffffffffffffffffff16021790555033600160006101000a81548173ffffffffffffffffffffffffffffffffffffffff021916908373ffffffffffffffffffffffffffffffffffffffff16021790555050610149565b600080fd5b600073ffffffffffffffffffffffffffffffffffffffff82169050919050565b60006100e9826100be565b9050919050565b6100f9816100de565b811461010457600080fd5b50565b600081519050610116816100f0565b92915050565b600060208284031215610132576101316100b9565b5b600061014084828501610107565b91505092915050565b610cfc806101586000396000f3fe60806040526004361061004e5760003560e01c8063315a095d1461005a5780637bc49a95146100835780638da5cb5b146100ac578063adf8252d146100d7578063fc0c546a1461011457610055565b3661005557005b600080fd5b34801561006657600080fd5b50610081600480360381019061007c91906106cd565b61013f565b005b34801561008f57600080fd5b506100aa60048036038101906100a591906106fa565b61025d565b005b3480156100b857600080fd5b506100c16105e5565b6040516100ce919061077b565b60405180910390f35b3480156100e357600080fd5b506100fe60048036038101906100f991906106cd565b61060b565b60405161010b91906107a5565b60405180910390f35b34801561012057600080fd5b5061012961066e565b604051610136919061081f565b60405180910390f35b600160009054906101000a900473ffffffffffffffffffffffffffffffffffffffff1673ffffffffffffffffffffffffffffffffffffffff163373ffffffffffffffffffffffffffffffffffffffff161461019957600080fd5b60008054906101000a900473ffffffffffffffffffffffffffffffffffffffff1673ffffffffffffffffffffffffffffffffffffffff1663a9059cbb600160009054906101000a900473ffffffffffffffffffffffffffffffffffffffff16836040518363ffffffff1660e01b815260040161021692919061083a565b6020604051808303816000875af1158015610235573d6000803e3d6000fd5b505050506040513d601f19601f82011682018060405250810190610259919061089b565b5050565b6001811015801561026f575060058111155b6102ae576040517f08c379a00000000000000000000000000000000000000000000000000000000081526004016102a590610925565b60405180910390fd5b60008054906101000a900473ffffffffffffffffffffffffffffffffffffffff1673ffffffffffffffffffffffffffffffffffffffff166323b872dd3330856040518463ffffffff1660e01b815260040161030b93929190610945565b6020604051808303816000875af115801561032a573d6000803e3d6000fd5b505050506040513d601f19601f8201168201806040525081019061034e919061089b565b61038d576040517f08c379a0000000000000000000000000000000000000000000000000000000008152600401610384906109c8565b60405180910390fd5b6000600160064233446040516020016103a893929190610a51565b6040516020818303038152906040528051906020012060001c6103cb9190610abd565b6103d59190610b1d565b905060008282119050801561058b5760006103ef8461060b565b90506000606482876104019190610b51565b61040b9190610b93565b90508060008054906101000a900473ffffffffffffffffffffffffffffffffffffffff1673ffffffffffffffffffffffffffffffffffffffff166370a08231306040518263ffffffff1660e01b8152600401610467919061077b565b602060405180830381865afa158015610484573d6000803e3d6000fd5b505050506040513d601f19601f820116820180604052508101906104a89190610bd9565b10156104e9576040517f08c379a00000000000000000000000000000000000000000000000000000000081526004016104e090610c52565b60405180910390fd5b60008054906101000a900473ffffffffffffffffffffffffffffffffffffffff1673ffffffffffffffffffffffffffffffffffffffff1663a9059cbb33836040518363ffffffff1660e01b815260040161054492919061083a565b6020604051808303816000875af1158015610563573d6000803e3d6000fd5b505050506040513d601f19601f82011682018060405250810190610587919061089b565b5050505b3373ffffffffffffffffffffffffffffffffffffffff167fff2f40edc39937f2d68b4e26cb744a21062d8c26580ba81efe9adef72cba4318858584866040516105d79493929190610c81565b60405180910390a250505050565b600160009054906101000a900473ffffffffffffffffffffffffffffffffffffffff1681565b60006001820361061e5760789050610669565b6002820361062f5760a09050610669565b600382036106405760c89050610669565b600482036106525761012c9050610669565b60058203610664576101f49050610669565b600090505b919050565b60008054906101000a900473ffffffffffffffffffffffffffffffffffffffff1681565b600080fd5b6000819050919050565b6106aa81610697565b81146106b557600080fd5b50565b6000813590506106c7816106a1565b92915050565b6000602082840312156106e3576106e2610692565b5b60006106f1848285016106b8565b91505092915050565b6000806040838503121561071157610710610692565b5b600061071f858286016106b8565b9250506020610730858286016106b8565b9150509250929050565b600073ffffffffffffffffffffffffffffffffffffffff82169050919050565b60006107658261073a565b9050919050565b6107758161075a565b82525050565b6000602082019050610790600083018461076c565b92915050565b61079f81610697565b82525050565b60006020820190506107ba6000830184610796565b92915050565b6000819050919050565b60006107e56107e06107db8461073a565b6107c0565b61073a565b9050919050565b60006107f7826107ca565b9050919050565b6000610809826107ec565b9050919050565b610819816107fe565b82525050565b60006020820190506108346000830184610810565b92915050565b600060408201905061084f600083018561076c565b61085c6020830184610796565b9392505050565b60008115159050919050565b61087881610863565b811461088357600080fd5b50565b6000815190506108958161086f565b92915050565b6000602082840312156108b1576108b0610692565b5b60006108bf84828501610886565b91505092915050565b600082825260208201905092915050565b7f312d352062756c6c657473206f6e6c7900000000000000000000000000000000600082015250565b600061090f6010836108c8565b915061091a826108d9565b602082019050919050565b6000602082019050818103600083015261093e81610902565b9050919050565b600060608201905061095a600083018661076c565b610967602083018561076c565b6109746040830184610796565b949350505050565b7f5472616e73666572206661696c65640000000000000000000000000000000000600082015250565b60006109b2600f836108c8565b91506109bd8261097c565b602082019050919050565b600060208201905081810360008301526109e1816109a5565b9050919050565b6000819050919050565b610a036109fe82610697565b6109e8565b82525050565b60008160601b9050919050565b6000610a2182610a09565b9050919050565b6000610a3382610a16565b9050919050565b610a4b610a468261075a565b610a28565b82525050565b6000610a5d82866109f2565b602082019150610a6d8285610a3a565b601482019150610a7d82846109f2565b602082019150819050949350505050565b7f4e487b7100000000000000000000000000000000000000000000000000000000600052601260045260246000fd5b6000610ac882610697565b9150610ad383610697565b925082610ae357610ae2610a8e565b5b828206905092915050565b7f4e487b7100000000000000000000000000000000000000000000000000000000600052601160045260246000fd5b6000610b2882610697565b9150610b3383610697565b9250828201905080821115610b4b57610b4a610aee565b5b92915050565b6000610b5c82610697565b9150610b6783610697565b9250828202610b7581610697565b91508282048414831517610b8c57610b8b610aee565b5b5092915050565b6000610b9e82610697565b9150610ba983610697565b925082610bb957610bb8610a8e565b5b828204905092915050565b600081519050610bd3816106a1565b92915050565b600060208284031215610bef57610bee610692565b5b6000610bfd84828501610bc4565b91505092915050565b7f42616e6b726f6c6c20746f6f206c6f7700000000000000000000000000000000600082015250565b6000610c3c6010836108c8565b9150610c4782610c06565b602082019050919050565b60006020820190508181036000830152610c6b81610c2f565b9050919050565b610c7b81610863565b82525050565b6000608082019050610c966000830187610796565b610ca36020830186610796565b610cb06040830185610c72565b610cbd6060830184610796565b9594505050505056fea2646970667358221220bf91f0e9127c8b26a903e031b2525dd0dc9d22be929caf85de57f09dc1b6f85464736f6c63430008140033",
  "linkReferences": {},
  "deployedLinkReferences": {}
}