{
  "_format": "hh-sol-artifact-1",
  "contractName": "Roulette",
  "sourceName": "contracts/Roulette.sol",
  "abi": [
    {
      "inputs": [
        {
          "internalType": "address",
          "name": "t",
          "type": "address"
        }
      ],
      "stateMutability": "nonpayable",
      "type": "constructor"
    },
    {
      "anonymous": false,
      "inputs": [
        {
          "indexed": false,
          "internalType": "address",
          "name": "player",
          "type": "address"
        },
        {
          "indexed": false,
          "internalType": "uint256",
          "name": "bet",
          "type": "uint256"
        },
        {
          "indexed": false,
          "internalType": "uint256",
          "name": "ammo",
          "type": "uint256"
        },
        {
          "indexed": false,
          "internalType": "bool",
          "name": "win",
          "type": "bool"
        },
        {
          "indexed": false,
          "internalType": "uint256",
          "name": "result",
          "type": "uint256"
        }
      ],
      "name": "GamePlayed",
      "type": "event"
    },
    {
      "inputs": [
        {
          "internalType": "uint256",
          "name": "a",
          "type": "uint256"
        }
      ],
      "name": "getMultiplier",
      "outputs": [
        {
          "internalType": "uint256",
          "name": "",
          "type": "uint256"
        }
      ],
      "stateMutability": "pure",
      "type": "function"
    },
    {
      "inputs": [],
      "name": "owner",
      "outputs": [
        {
          "internalType": "address",
          "name": "",
          "type": "address"
        }
      ],
      "stateMutability": "view",
      "type": "function"
    },
    {
      "inputs": [
        {
          "internalType": "uint256",
          "name": "bet",
          "type": "uint256"
        },
        {
          "internalType": "uint256",
          "name": "ammo",
          "type": "uint256"
        }
      ],
      "name": "play",
      "outputs": [],
      "stateMutability": "nonpayable",
      "type": "function"
    },
    {
      "inputs": [],
      "name": "token",
      "outputs": [
        {
          "internalType": "contract IERC20",
          "name": "",
          "type": "address"
        }
      ],
      "stateMutability": "view",
      "type": "function"
    },
    {
      "inputs": [
        {
          "internalType": "uint256",
          "name": "amount",
          "type": "uint256"
        }
      ],
      "name": "withdrawTokens",
      "outputs": [],
      "stateMutability": "nonpayable",
      "type": "function"
    },
    {
      "stateMutability": "payable",
      "type": "receive"
    }
  ],
  "bytecode": "0x608060405234801561001057600080fd5b50604051610c56380380610c568339818101604052810190610032919061011c565b806000806101000a81548173ffffffffffffffffffffffffffffffffffffffff021916908373ffffffffffffffffffffffffffffffffffffffff16021790555033600160006101000a81548173ffffffffffffffffffffffffffffffffffffffff021916908373ffffffffffffffffffffffffffffffffffffffff16021790555050610149565b600080fd5b600073ffffffffffffffffffffffffffffffffffffffff82169050919050565b60006100e9826100be565b9050919050565b6100f9816100de565b811461010457600080fd5b50565b600081519050610116816100f0565b92915050565b600060208284031215610132576101316100b9565b5b600061014084828501610107565b91505092915050565b610afe806101586000396000f3fe60806040526004361061004e5760003560e01c8063315a095d1461005a5780637bc49a95146100835780638da5cb5b146100ac578063adf8252d146100d7578063fc0c546a1461011457610055565b3661005557005b600080fd5b34801561006657600080fd5b50610081600480360381019061007c9190610616565b61013f565b005b34801561008f57600080fd5b506100aa60048036038101906100a59190610643565b61025d565b005b3480156100b857600080fd5b506100c161052e565b6040516100ce91906106c4565b60405180910390f35b3480156100e357600080fd5b506100fe60048036038101906100f99190610616565b610554565b60405161010b91906106ee565b60405180910390f35b34801561012057600080fd5b506101296105b7565b6040516101369190610768565b60405180910390f35b600160009054906101000a900473ffffffffffffffffffffffffffffffffffffffff1673ffffffffffffffffffffffffffffffffffffffff163373ffffffffffffffffffffffffffffffffffffffff161461019957600080fd5b60008054906101000a900473ffffffffffffffffffffffffffffffffffffffff1673ffffffffffffffffffffffffffffffffffffffff1663a9059cbb600160009054906101000a900473ffffffffffffffffffffffffffffffffffffffff16836040518363ffffffff1660e01b8152600401610216929190610783565b6020604051808303816000875af1158015610235573d6000803e3d6000fd5b505050506040513d601f19601f8201168201806040525081019061025991906107e4565b5050565b6001811015801561026f575060058111155b61027857600080fd5b60008054906101000a900473ffffffffffffffffffffffffffffffffffffffff1673ffffffffffffffffffffffffffffffffffffffff166323b872dd3330856040518463ffffffff1660e01b81526004016102d593929190610811565b6020604051808303816000875af11580156102f4573d6000803e3d6000fd5b505050506040513d601f19601f8201168201806040525081019061031891906107e4565b61032157600080fd5b60006001600642334460405160200161033c939291906108b1565b6040516020818303038152906040528051906020012060001c61035f919061091d565b610369919061097d565b90506000828211905080156104e957600061038384610554565b905060006064828761039591906109b1565b61039f91906109f3565b90508060008054906101000a900473ffffffffffffffffffffffffffffffffffffffff1673ffffffffffffffffffffffffffffffffffffffff166370a08231306040518263ffffffff1660e01b81526004016103fb91906106c4565b602060405180830381865afa158015610418573d6000803e3d6000fd5b505050506040513d601f19601f8201168201806040525081019061043c9190610a39565b101561044757600080fd5b60008054906101000a900473ffffffffffffffffffffffffffffffffffffffff1673ffffffffffffffffffffffffffffffffffffffff1663a9059cbb33836040518363ffffffff1660e01b81526004016104a2929190610783565b6020604051808303816000875af11580156104c1573d6000803e3d6000fd5b505050506040513d601f19601f820116820180604052508101906104e591906107e4565b5050505b7fff2f40edc39937f2d68b4e26cb744a21062d8c26580ba81efe9adef72cba43183385858486604051610520959493929190610a75565b60405180910390a150505050565b600160009054906101000a900473ffffffffffffffffffffffffffffffffffffffff1681565b60006001820361056757607890506105b2565b600282036105785760a090506105b2565b600382036105895760c890506105b2565b6004820361059b5761012c90506105b2565b600582036105ad576101f490506105b2565b600090505b919050565b60008054906101000a900473ffffffffffffffffffffffffffffffffffffffff1681565b600080fd5b6000819050919050565b6105f3816105e0565b81146105fe57600080fd5b50565b600081359050610610816105ea565b92915050565b60006020828403121561062c5761062b6105db565b5b600061063a84828501610601565b91505092915050565b6000806040838503121561065a576106596105db565b5b600061066885828601610601565b925050602061067985828601610601565b9150509250929050565b600073ffffffffffffffffffffffffffffffffffffffff82169050919050565b60006106ae82610683565b9050919050565b6106be816106a3565b82525050565b60006020820190506106d960008301846106b5565b92915050565b6106e8816105e0565b82525050565b600060208201905061070360008301846106df565b92915050565b6000819050919050565b600061072e61072961072484610683565b610709565b610683565b9050919050565b600061074082610713565b9050919050565b600061075282610735565b9050919050565b61076281610747565b82525050565b600060208201905061077d6000830184610759565b92915050565b600060408201905061079860008301856106b5565b6107a560208301846106df565b9392505050565b60008115159050919050565b6107c1816107ac565b81146107cc57600080fd5b50565b6000815190506107de816107b8565b92915050565b6000602082840312156107fa576107f96105db565b5b6000610808848285016107cf565b91505092915050565b600060608201905061082660008301866106b5565b61083360208301856106b5565b61084060408301846106df565b949350505050565b6000819050919050565b61086361085e826105e0565b610848565b82525050565b60008160601b9050919050565b600061088182610869565b9050919050565b600061089382610876565b9050919050565b6108ab6108a6826106a3565b610888565b82525050565b60006108bd8286610852565b6020820191506108cd828561089a565b6014820191506108dd8284610852565b602082019150819050949350505050565b7f4e487b7100000000000000000000000000000000000000000000000000000000600052601260045260246000fd5b6000610928826105e0565b9150610933836105e0565b925082610943576109426108ee565b5b828206905092915050565b7f4e487b7100000000000000000000000000000000000000000000000000000000600052601160045260246000fd5b6000610988826105e0565b9150610993836105e0565b92508282019050808211156109ab576109aa61094e565b5b92915050565b60006109bc826105e0565b91506109c7836105e0565b92508282026109d5816105e0565b915082820484148315176109ec576109eb61094e565b5b5092915050565b60006109fe826105e0565b9150610a09836105e0565b925082610a1957610a186108ee565b5b828204905092915050565b600081519050610a33816105ea565b92915050565b600060208284031215610a4f57610a4e6105db565b5b6000610a5d84828501610a24565b91505092915050565b610a6f816107ac565b82525050565b600060a082019050610a8a60008301886106b5565b610a9760208301876106df565b610aa460408301866106df565b610ab16060830185610a66565b610abe60808301846106df565b969550505050505056fea2646970667358221220d96c104bee4af35024f51c27ec897b729d441c1b5cb810f69cfc4987a8027ae464736f6c63430008140033",
  "linkReferences": {},
  "deployedLinkReferences": {}
}