{
  "_format": "hh-sol-artifact-1",
  "contractName": "Roulette",
  "sourceName": "contracts/Roulette.sol",
  "abi": [
    {
      "inputs": [
        {
          "internalType": "address",
          "name": "tokenAddress",
          "type": "address"
        }
      ],
      "stateMutability": "nonpayable",
      "type": "constructor"
    },
    {
      "inputs": [
        {
          "internalType": "address",
          "name": "owner",
          "type": "address"
        }
      ],
      "name": "OwnableInvalidOwner",
      "type": "error"
    },
    {
      "inputs": [
        {
          "internalType": "address",
          "name": "account",
          "type": "address"
        }
      ],
      "name": "OwnableUnauthorizedAccount",
      "type": "error"
    },
    {
      "anonymous": false,
      "inputs": [
        {
          "indexed": true,
          "internalType": "address",
          "name": "owner",
          "type": "address"
        },
        {
          "indexed": false,
          "internalType": "uint256",
          "name": "amount",
          "type": "uint256"
        }
      ],
      "name": "FundsWithdrawn",
      "type": "event"
    },
    {
      "anonymous": false,
      "inputs": [
        {
          "indexed": true,
          "internalType": "address",
          "name": "player",
          "type": "address"
        },
        {
          "indexed": false,
          "internalType": "uint256",
          "name": "bet",
          "type": "uint256"
        },
        {
          "indexed": false,
          "internalType": "uint8",
          "name": "ammo",
          "type": "uint8"
        },
        {
          "indexed": false,
          "internalType": "uint256",
          "name": "randomValue",
          "type": "uint256"
        },
        {
          "indexed": false,
          "internalType": "bool",
          "name": "won",
          "type": "bool"
        },
        {
          "indexed": false,
          "internalType": "uint256",
          "name": "reward",
          "type": "uint256"
        }
      ],
      "name": "GamePlayed",
      "type": "event"
    },
    {
      "anonymous": false,
      "inputs": [
        {
          "indexed": true,
          "internalType": "address",
          "name": "previousOwner",
          "type": "address"
        },
        {
          "indexed": true,
          "internalType": "address",
          "name": "newOwner",
          "type": "address"
        }
      ],
      "name": "OwnershipTransferred",
      "type": "event"
    },
    {
      "inputs": [],
      "name": "owner",
      "outputs": [
        {
          "internalType": "address",
          "name": "",
          "type": "address"
        }
      ],
      "stateMutability": "view",
      "type": "function"
    },
    {
      "inputs": [
        {
          "internalType": "uint256",
          "name": "bet",
          "type": "uint256"
        },
        {
          "internalType": "uint8",
          "name": "ammo",
          "type": "uint8"
        }
      ],
      "name": "play",
      "outputs": [],
      "stateMutability": "nonpayable",
      "type": "function"
    },
    {
      "inputs": [],
      "name": "renounceOwnership",
      "outputs": [],
      "stateMutability": "nonpayable",
      "type": "function"
    },
    {
      "inputs": [],
      "name": "token",
      "outputs": [
        {
          "internalType": "contract BulletToken",
          "name": "",
          "type": "address"
        }
      ],
      "stateMutability": "view",
      "type": "function"
    },
    {
      "inputs": [
        {
          "internalType": "address",
          "name": "newOwner",
          "type": "address"
        }
      ],
      "name": "transferOwnership",
      "outputs": [],
      "stateMutability": "nonpayable",
      "type": "function"
    },
    {
      "inputs": [],
      "name": "withdrawETH",
      "outputs": [],
      "stateMutability": "nonpayable",
      "type": "function"
    },
    {
      "inputs": [
        {
          "internalType": "uint256",
          "name": "amount",
          "type": "uint256"
        }
      ],
      "name": "withdrawTokens",
      "outputs": [],
      "stateMutability": "nonpayable",
      "type": "function"
    }
  ],
  "bytecode": "0x60806040523480156200001157600080fd5b50604051620015c6380380620015c6833981810160405281019062000037919062000235565b33600073ffffffffffffffffffffffffffffffffffffffff168173ffffffffffffffffffffffffffffffffffffffff1603620000ad5760006040517f1e4fbdf7000000000000000000000000000000000000000000000000000000008152600401620000a4919062000278565b60405180910390fd5b620000be816200010760201b60201c565b5080600160006101000a81548173ffffffffffffffffffffffffffffffffffffffff021916908373ffffffffffffffffffffffffffffffffffffffff1602179055505062000295565b60008060009054906101000a900473ffffffffffffffffffffffffffffffffffffffff169050816000806101000a81548173ffffffffffffffffffffffffffffffffffffffff021916908373ffffffffffffffffffffffffffffffffffffffff1602179055508173ffffffffffffffffffffffffffffffffffffffff168173ffffffffffffffffffffffffffffffffffffffff167f8be0079c531659141344cd1fd0a4f28419497f9722a3daafe3b4186f6b6457e060405160405180910390a35050565b600080fd5b600073ffffffffffffffffffffffffffffffffffffffff82169050919050565b6000620001fd82620001d0565b9050919050565b6200020f81620001f0565b81146200021b57600080fd5b50565b6000815190506200022f8162000204565b92915050565b6000602082840312156200024e576200024d620001cb565b5b60006200025e848285016200021e565b91505092915050565b6200027281620001f0565b82525050565b60006020820190506200028f600083018462000267565b92915050565b61132180620002a56000396000f3fe608060405234801561001057600080fd5b506004361061007d5760003560e01c80638da5cb5b1161005b5780638da5cb5b146100c4578063e086e5ec146100e2578063f2fde38b146100ec578063fc0c546a146101085761007d565b8063315a095d146100825780635cd7692e1461009e578063715018a6146100ba575b600080fd5b61009c60048036038101906100979190610b14565b610126565b005b6100b860048036038101906100b39190610b7a565b61030c565b005b6100c2610845565b005b6100cc610859565b6040516100d99190610bfb565b60405180910390f35b6100ea610882565b005b61010660048036038101906101019190610c42565b6108da565b005b610110610960565b60405161011d9190610cce565b60405180910390f35b61012e610986565b80600160009054906101000a900473ffffffffffffffffffffffffffffffffffffffff1673ffffffffffffffffffffffffffffffffffffffff166370a08231306040518263ffffffff1660e01b815260040161018a9190610bfb565b602060405180830381865afa1580156101a7573d6000803e3d6000fd5b505050506040513d601f19601f820116820180604052508101906101cb9190610cfe565b101561020c576040517f08c379a000000000000000000000000000000000000000000000000000000000815260040161020390610d88565b60405180910390fd5b600160009054906101000a900473ffffffffffffffffffffffffffffffffffffffff1673ffffffffffffffffffffffffffffffffffffffff1663a9059cbb610252610859565b836040518363ffffffff1660e01b8152600401610270929190610db7565b6020604051808303816000875af115801561028f573d6000803e3d6000fd5b505050506040513d601f19601f820116820180604052508101906102b39190610e18565b506102bc610859565b73ffffffffffffffffffffffffffffffffffffffff167feaff4b37086828766ad3268786972c0cd24259d4c87a80f9d3963a3c3d999b0d826040516103019190610e45565b60405180910390a250565b6000821161034f576040517f08c379a000000000000000000000000000000000000000000000000000000000815260040161034690610eac565b60405180910390fd5b60018160ff1610158015610367575060058160ff1611155b6103a6576040517f08c379a000000000000000000000000000000000000000000000000000000000815260040161039d90610f18565b60405180910390fd5b81600160009054906101000a900473ffffffffffffffffffffffffffffffffffffffff1673ffffffffffffffffffffffffffffffffffffffff166370a08231336040518263ffffffff1660e01b81526004016104029190610bfb565b602060405180830381865afa15801561041f573d6000803e3d6000fd5b505050506040513d601f19601f820116820180604052508101906104439190610cfe565b1015610484576040517f08c379a000000000000000000000000000000000000000000000000000000000815260040161047b90610f84565b60405180910390fd5b600160009054906101000a900473ffffffffffffffffffffffffffffffffffffffff1673ffffffffffffffffffffffffffffffffffffffff166323b872dd3330856040518463ffffffff1660e01b81526004016104e393929190610fa4565b6020604051808303816000875af1158015610502573d6000803e3d6000fd5b505050506040513d601f19601f820116820180604052508101906105269190610e18565b5060006006423344600160009054906101000a900473ffffffffffffffffffffffffffffffffffffffff1673ffffffffffffffffffffffffffffffffffffffff166370a08231306040518263ffffffff1660e01b81526004016105899190610bfb565b602060405180830381865afa1580156105a6573d6000803e3d6000fd5b505050506040513d601f19601f820116820180604052508101906105ca9190610cfe565b6040516020016105dd9493929190611044565b6040516020818303038152906040528051906020012060001c61060091906110c1565b905060008260ff168210159050600081156107e85760008460066106249190611121565b60ff166753444835ec58000061063a919061116a565b67ffffffffffffffff169050670de0b6b3a7640000818761065b919061119b565b61066591906111dd565b915081600160009054906101000a900473ffffffffffffffffffffffffffffffffffffffff1673ffffffffffffffffffffffffffffffffffffffff166370a08231306040518263ffffffff1660e01b81526004016106c39190610bfb565b602060405180830381865afa1580156106e0573d6000803e3d6000fd5b505050506040513d601f19601f820116820180604052508101906107049190610cfe565b1015610745576040517f08c379a000000000000000000000000000000000000000000000000000000000815260040161073c9061125a565b60405180910390fd5b600160009054906101000a900473ffffffffffffffffffffffffffffffffffffffff1673ffffffffffffffffffffffffffffffffffffffff1663a9059cbb33846040518363ffffffff1660e01b81526004016107a2929190610db7565b6020604051808303816000875af11580156107c1573d6000803e3d6000fd5b505050506040513d601f19601f820116820180604052508101906107e59190610e18565b50505b3373ffffffffffffffffffffffffffffffffffffffff167f9e18a80dbf7b2457bee85b4526813cf1800458a2411c620d6e176178ac3a99508686868686604051610836959493929190611298565b60405180910390a25050505050565b61084d610986565b6108576000610a0d565b565b60008060009054906101000a900473ffffffffffffffffffffffffffffffffffffffff16905090565b61088a610986565b610892610859565b73ffffffffffffffffffffffffffffffffffffffff166108fc479081150290604051600060405180830381858888f193505050501580156108d7573d6000803e3d6000fd5b50565b6108e2610986565b600073ffffffffffffffffffffffffffffffffffffffff168173ffffffffffffffffffffffffffffffffffffffff16036109545760006040517f1e4fbdf700000000000000000000000000000000000000000000000000000000815260040161094b9190610bfb565b60405180910390fd5b61095d81610a0d565b50565b600160009054906101000a900473ffffffffffffffffffffffffffffffffffffffff1681565b61098e610ad1565b73ffffffffffffffffffffffffffffffffffffffff166109ac610859565b73ffffffffffffffffffffffffffffffffffffffff1614610a0b576109cf610ad1565b6040517f118cdaa7000000000000000000000000000000000000000000000000000000008152600401610a029190610bfb565b60405180910390fd5b565b60008060009054906101000a900473ffffffffffffffffffffffffffffffffffffffff169050816000806101000a81548173ffffffffffffffffffffffffffffffffffffffff021916908373ffffffffffffffffffffffffffffffffffffffff1602179055508173ffffffffffffffffffffffffffffffffffffffff168173ffffffffffffffffffffffffffffffffffffffff167f8be0079c531659141344cd1fd0a4f28419497f9722a3daafe3b4186f6b6457e060405160405180910390a35050565b600033905090565b600080fd5b6000819050919050565b610af181610ade565b8114610afc57600080fd5b50565b600081359050610b0e81610ae8565b92915050565b600060208284031215610b2a57610b29610ad9565b5b6000610b3884828501610aff565b91505092915050565b600060ff82169050919050565b610b5781610b41565b8114610b6257600080fd5b50565b600081359050610b7481610b4e565b92915050565b60008060408385031215610b9157610b90610ad9565b5b6000610b9f85828601610aff565b9250506020610bb085828601610b65565b9150509250929050565b600073ffffffffffffffffffffffffffffffffffffffff82169050919050565b6000610be582610bba565b9050919050565b610bf581610bda565b82525050565b6000602082019050610c106000830184610bec565b92915050565b610c1f81610bda565b8114610c2a57600080fd5b50565b600081359050610c3c81610c16565b92915050565b600060208284031215610c5857610c57610ad9565b5b6000610c6684828501610c2d565b91505092915050565b6000819050919050565b6000610c94610c8f610c8a84610bba565b610c6f565b610bba565b9050919050565b6000610ca682610c79565b9050919050565b6000610cb882610c9b565b9050919050565b610cc881610cad565b82525050565b6000602082019050610ce36000830184610cbf565b92915050565b600081519050610cf881610ae8565b92915050565b600060208284031215610d1457610d13610ad9565b5b6000610d2284828501610ce9565b91505092915050565b600082825260208201905092915050565b7f4e6f7420656e6f75676820746f6b656e7320696e20636f6e7472616374000000600082015250565b6000610d72601d83610d2b565b9150610d7d82610d3c565b602082019050919050565b60006020820190508181036000830152610da181610d65565b9050919050565b610db181610ade565b82525050565b6000604082019050610dcc6000830185610bec565b610dd96020830184610da8565b9392505050565b60008115159050919050565b610df581610de0565b8114610e0057600080fd5b50565b600081519050610e1281610dec565b92915050565b600060208284031215610e2e57610e2d610ad9565b5b6000610e3c84828501610e03565b91505092915050565b6000602082019050610e5a6000830184610da8565b92915050565b7f426574206d7573742062652067726561746572207468616e2030000000000000600082015250565b6000610e96601a83610d2b565b9150610ea182610e60565b602082019050919050565b60006020820190508181036000830152610ec581610e89565b9050919050565b7f416d6d6f206d757374206265206265747765656e203120616e64203500000000600082015250565b6000610f02601c83610d2b565b9150610f0d82610ecc565b602082019050919050565b60006020820190508181036000830152610f3181610ef5565b9050919050565b7f496e73756666696369656e742062616c616e6365000000000000000000000000600082015250565b6000610f6e601483610d2b565b9150610f7982610f38565b602082019050919050565b60006020820190508181036000830152610f9d81610f61565b9050919050565b6000606082019050610fb96000830186610bec565b610fc66020830185610bec565b610fd36040830184610da8565b949350505050565b6000819050919050565b610ff6610ff182610ade565b610fdb565b82525050565b60008160601b9050919050565b600061101482610ffc565b9050919050565b600061102682611009565b9050919050565b61103e61103982610bda565b61101b565b82525050565b60006110508287610fe5565b602082019150611060828661102d565b6014820191506110708285610fe5565b6020820191506110808284610fe5565b60208201915081905095945050505050565b7f4e487b7100000000000000000000000000000000000000000000000000000000600052601260045260246000fd5b60006110cc82610ade565b91506110d783610ade565b9250826110e7576110e6611092565b5b828206905092915050565b7f4e487b7100000000000000000000000000000000000000000000000000000000600052601160045260246000fd5b600061112c82610b41565b915061113783610b41565b9250828203905060ff8111156111505761114f6110f2565b5b92915050565b600067ffffffffffffffff82169050919050565b600061117582611156565b915061118083611156565b9250826111905761118f611092565b5b828204905092915050565b60006111a682610ade565b91506111b183610ade565b92508282026111bf81610ade565b915082820484148315176111d6576111d56110f2565b5b5092915050565b60006111e882610ade565b91506111f383610ade565b92508261120357611202611092565b5b828204905092915050565b7f436173696e6f2062616e6b726f6c6c20697320656d7074792100000000000000600082015250565b6000611244601983610d2b565b915061124f8261120e565b602082019050919050565b6000602082019050818103600083015261127381611237565b9050919050565b61128381610b41565b82525050565b61129281610de0565b82525050565b600060a0820190506112ad6000830188610da8565b6112ba602083018761127a565b6112c76040830186610da8565b6112d46060830185611289565b6112e16080830184610da8565b969550505050505056fea26469706673582212200374de3cb5b3cf189288b5fdc0b1e0803485694935c949d5aaa00c81c3cf3a2f64736f6c63430008140033",
  "linkReferences": {},
  "deployedLinkReferences": {}
}